{"abi":[{"type":"function","name":"getNumber","inputs":[],"outputs":[{"name":"","type":"uint256","internalType":"uint256"}],"stateMutability":"view"},{"type":"function","name":"owner","inputs":[],"outputs":[{"name":"","type":"address","internalType":"address"}],"stateMutability":"view"},{"type":"function","name":"renounceOwnership","inputs":[],"outputs":[],"stateMutability":"nonpayable"},{"type":"function","name":"store","inputs":[{"name":"newNumber","type":"uint256","internalType":"uint256"}],"outputs":[],"stateMutability":"nonpayable"},{"type":"function","name":"transferOwnership","inputs":[{"name":"newOwner","type":"address","internalType":"address"}],"outputs":[],"stateMutability":"nonpayable"},{"type":"event","name":"OwnershipTransferred","inputs":[{"name":"previousOwner","type":"address","indexed":true,"internalType":"address"},{"name":"newOwner","type":"address","indexed":true,"internalType":"address"}],"anonymous":false},{"type":"event","name":"numberChanged","inputs":[{"name":"number","type":"uint256","indexed":false,"internalType":"uint256"}],"anonymous":false}],"bytecode":{"object":"0x608060405234801561000f575f5ffd5b5061002c61002161003160201b60201c565b61003860201b60201c565b6100f9565b5f33905090565b5f5f5f9054906101000a900473ffffffffffffffffffffffffffffffffffffffff169050815f5f6101000a81548173ffffffffffffffffffffffffffffffffffffffff021916908373ffffffffffffffffffffffffffffffffffffffff1602179055508173ffffffffffffffffffffffffffffffffffffffff168173ffffffffffffffffffffffffffffffffffffffff167f8be0079c531659141344cd1fd0a4f28419497f9722a3daafe3b4186f6b6457e060405160405180910390a35050565b61059e806101065f395ff3fe608060405234801561000f575f5ffd5b5060043610610055575f3560e01c80636057361d14610059578063715018a6146100755780638da5cb5b1461007f578063f2c9ecd81461009d578063f2fde38b146100bb575b5f5ffd5b610073600480360381019061006e9190610362565b6100d7565b005b61007d610120565b005b610087610133565b60405161009491906103cc565b60405180910390f35b6100a561015a565b6040516100b291906103f4565b60405180910390f35b6100d560048036038101906100d09190610437565b610163565b005b6100df6101e5565b806001819055507fe56e9ddd265506f6acd5a545e1ec7ba84750f6eabf282eaa58fa04333c003c5f8160405161011591906103f4565b60405180910390a150565b6101286101e5565b6101315f610263565b565b5f5f5f9054906101000a900473ffffffffffffffffffffffffffffffffffffffff16905090565b5f600154905090565b61016b6101e5565b5f73ffffffffffffffffffffffffffffffffffffffff168173ffffffffffffffffffffffffffffffffffffffff16036101d9576040517f08c379a00000000000000000000000000000000000000000000000000000000081526004016101d0906104e2565b60405180910390fd5b6101e281610263565b50565b6101ed610324565b73ffffffffffffffffffffffffffffffffffffffff1661020b610133565b73ffffffffffffffffffffffffffffffffffffffff1614610261576040517f08c379a00000000000000000000000000000000000000000000000000000000081526004016102589061054a565b60405180910390fd5b565b5f5f5f9054906101000a900473ffffffffffffffffffffffffffffffffffffffff169050815f5f6101000a81548173ffffffffffffffffffffffffffffffffffffffff021916908373ffffffffffffffffffffffffffffffffffffffff1602179055508173ffffffffffffffffffffffffffffffffffffffff168173ffffffffffffffffffffffffffffffffffffffff167f8be0079c531659141344cd1fd0a4f28419497f9722a3daafe3b4186f6b6457e060405160405180910390a35050565b5f33905090565b5f5ffd5b5f819050919050565b6103418161032f565b811461034b575f5ffd5b50565b5f8135905061035c81610338565b92915050565b5f602082840312156103775761037661032b565b5b5f6103848482850161034e565b91505092915050565b5f73ffffffffffffffffffffffffffffffffffffffff82169050919050565b5f6103b68261038d565b9050919050565b6103c6816103ac565b82525050565b5f6020820190506103df5f8301846103bd565b92915050565b6103ee8161032f565b82525050565b5f6020820190506104075f8301846103e5565b92915050565b610416816103ac565b8114610420575f5ffd5b50565b5f813590506104318161040d565b92915050565b5f6020828403121561044c5761044b61032b565b5b5f61045984828501610423565b91505092915050565b5f82825260208201905092915050565b7f4f776e61626c653a206e6577206f776e657220697320746865207a65726f20615f8201527f6464726573730000000000000000000000000000000000000000000000000000602082015250565b5f6104cc602683610462565b91506104d782610472565b604082019050919050565b5f6020820190508181035f8301526104f9816104c0565b9050919050565b7f4f776e61626c653a2063616c6c6572206973206e6f7420746865206f776e65725f82015250565b5f610534602083610462565b915061053f82610500565b602082019050919050565b5f6020820190508181035f83015261056181610528565b905091905056fea2646970667358221220d875a1ec17634437022785c3444c706dc20e0f36d1a9207b6fc0fc9a66bb747564736f6c634300081c0033","linkReferences":{}},"methodIdentifiers":{"getNumber()":"f2c9ecd8","owner()":"8da5cb5b","renounceOwnership()":"715018a6","store(uint256)":"6057361d","transferOwnership(address)":"f2fde38b"},"id":2}