{"abi":[{"type":"constructor","inputs":[{"name":"minDelay","type":"uint256","internalType":"uint256"},{"name":"proposers","type":"address[]","internalType":"address[]"},{"name":"executors","type":"address[]","internalType":"address[]"}],"stateMutability":"nonpayable"},{"type":"receive","stateMutability":"payable"},{"type":"function","name":"CANCELLER_ROLE","inputs":[],"outputs":[{"name":"","type":"bytes32","internalType":"bytes32"}],"stateMutability":"view"},{"type":"function","name":"DEFAULT_ADMIN_ROLE","inputs":[],"outputs":[{"name":"","type":"bytes32","internalType":"bytes32"}],"stateMutability":"view"},{"type":"function","name":"EXECUTOR_ROLE","inputs":[],"outputs":[{"name":"","type":"bytes32","internalType":"bytes32"}],"stateMutability":"view"},{"type":"function","name":"PROPOSER_ROLE","inputs":[],"outputs":[{"name":"","type":"bytes32","internalType":"bytes32"}],"stateMutability":"view"},{"type":"function","name":"TIMELOCK_ADMIN_ROLE","inputs":[],"outputs":[{"name":"","type":"bytes32","internalType":"bytes32"}],"stateMutability":"view"},{"type":"function","name":"cancel","inputs":[{"name":"id","type":"bytes32","internalType":"bytes32"}],"outputs":[],"stateMutability":"nonpayable"},{"type":"function","name":"execute","inputs":[{"name":"target","type":"address","internalType":"address"},{"name":"value","type":"uint256","internalType":"uint256"},{"name":"payload","type":"bytes","internalType":"bytes"},{"name":"predecessor","type":"bytes32","internalType":"bytes32"},{"name":"salt","type":"bytes32","internalType":"bytes32"}],"outputs":[],"stateMutability":"payable"},{"type":"function","name":"executeBatch","inputs":[{"name":"targets","type":"address[]","internalType":"address[]"},{"name":"values","type":"uint256[]","internalType":"uint256[]"},{"name":"payloads","type":"bytes[]","internalType":"bytes[]"},{"name":"predecessor","type":"bytes32","internalType":"bytes32"},{"name":"salt","type":"bytes32","internalType":"bytes32"}],"outputs":[],"stateMutability":"payable"},{"type":"function","name":"getMinDelay","inputs":[],"outputs":[{"name":"duration","type":"uint256","internalType":"uint256"}],"stateMutability":"view"},{"type":"function","name":"getRoleAdmin","inputs":[{"name":"role","type":"bytes32","internalType":"bytes32"}],"outputs":[{"name":"","type":"bytes32","internalType":"bytes32"}],"stateMutability":"view"},{"type":"function","name":"getTimestamp","inputs":[{"name":"id","type":"bytes32","internalType":"bytes32"}],"outputs":[{"name":"timestamp","type":"uint256","internalType":"uint256"}],"stateMutability":"view"},{"type":"function","name":"grantRole","inputs":[{"name":"role","type":"bytes32","internalType":"bytes32"},{"name":"account","type":"address","internalType":"address"}],"outputs":[],"stateMutability":"nonpayable"},{"type":"function","name":"hasRole","inputs":[{"name":"role","type":"bytes32","internalType":"bytes32"},{"name":"account","type":"address","internalType":"address"}],"outputs":[{"name":"","type":"bool","internalType":"bool"}],"stateMutability":"view"},{"type":"function","name":"hashOperation","inputs":[{"name":"target","type":"address","internalType":"address"},{"name":"value","type":"uint256","internalType":"uint256"},{"name":"data","type":"bytes","internalType":"bytes"},{"name":"predecessor","type":"bytes32","internalType":"bytes32"},{"name":"salt","type":"bytes32","internalType":"bytes32"}],"outputs":[{"name":"hash","type":"bytes32","internalType":"bytes32"}],"stateMutability":"pure"},{"type":"function","name":"hashOperationBatch","inputs":[{"name":"targets","type":"address[]","internalType":"address[]"},{"name":"values","type":"uint256[]","internalType":"uint256[]"},{"name":"payloads","type":"bytes[]","internalType":"bytes[]"},{"name":"predecessor","type":"bytes32","internalType":"bytes32"},{"name":"salt","type":"bytes32","internalType":"bytes32"}],"outputs":[{"name":"hash","type":"bytes32","internalType":"bytes32"}],"stateMutability":"pure"},{"type":"function","name":"isOperation","inputs":[{"name":"id","type":"bytes32","internalType":"bytes32"}],"outputs":[{"name":"registered","type":"bool","internalType":"bool"}],"stateMutability":"view"},{"type":"function","name":"isOperationDone","inputs":[{"name":"id","type":"bytes32","internalType":"bytes32"}],"outputs":[{"name":"done","type":"bool","internalType":"bool"}],"stateMutability":"view"},{"type":"function","name":"isOperationPending","inputs":[{"name":"id","type":"bytes32","internalType":"bytes32"}],"outputs":[{"name":"pending","type":"bool","internalType":"bool"}],"stateMutability":"view"},{"type":"function","name":"isOperationReady","inputs":[{"name":"id","type":"bytes32","internalType":"bytes32"}],"outputs":[{"name":"ready","type":"bool","internalType":"bool"}],"stateMutability":"view"},{"type":"function","name":"onERC1155BatchReceived","inputs":[{"name":"","type":"address","internalType":"address"},{"name":"","type":"address","internalType":"address"},{"name":"","type":"uint256[]","internalType":"uint256[]"},{"name":"","type":"uint256[]","internalType":"uint256[]"},{"name":"","type":"bytes","internalType":"bytes"}],"outputs":[{"name":"","type":"bytes4","internalType":"bytes4"}],"stateMutability":"nonpayable"},{"type":"function","name":"onERC1155Received","inputs":[{"name":"","type":"address","internalType":"address"},{"name":"","type":"address","internalType":"address"},{"name":"","type":"uint256","internalType":"uint256"},{"name":"","type":"uint256","internalType":"uint256"},{"name":"","type":"bytes","internalType":"bytes"}],"outputs":[{"name":"","type":"bytes4","internalType":"bytes4"}],"stateMutability":"nonpayable"},{"type":"function","name":"onERC721Received","inputs":[{"name":"","type":"address","internalType":"address"},{"name":"","type":"address","internalType":"address"},{"name":"","type":"uint256","internalType":"uint256"},{"name":"","type":"bytes","internalType":"bytes"}],"outputs":[{"name":"","type":"bytes4","internalType":"bytes4"}],"stateMutability":"nonpayable"},{"type":"function","name":"renounceRole","inputs":[{"name":"role","type":"bytes32","internalType":"bytes32"},{"name":"account","type":"address","internalType":"address"}],"outputs":[],"stateMutability":"nonpayable"},{"type":"function","name":"revokeRole","inputs":[{"name":"role","type":"bytes32","internalType":"bytes32"},{"name":"account","type":"address","internalType":"address"}],"outputs":[],"stateMutability":"nonpayable"},{"type":"function","name":"schedule","inputs":[{"name":"target","type":"address","internalType":"address"},{"name":"value","type":"uint256","internalType":"uint256"},{"name":"data","type":"bytes","internalType":"bytes"},{"name":"predecessor","type":"bytes32","internalType":"bytes32"},{"name":"salt","type":"bytes32","internalType":"bytes32"},{"name":"delay","type":"uint256","internalType":"uint256"}],"outputs":[],"stateMutability":"nonpayable"},{"type":"function","name":"scheduleBatch","inputs":[{"name":"targets","type":"address[]","internalType":"address[]"},{"name":"values","type":"uint256[]","internalType":"uint256[]"},{"name":"payloads","type":"bytes[]","internalType":"bytes[]"},{"name":"predecessor","type":"bytes32","internalType":"bytes32"},{"name":"salt","type":"bytes32","internalType":"bytes32"},{"name":"delay","type":"uint256","internalType":"uint256"}],"outputs":[],"stateMutability":"nonpayable"},{"type":"function","name":"supportsInterface","inputs":[{"name":"interfaceId","type":"bytes4","internalType":"bytes4"}],"outputs":[{"name":"","type":"bool","internalType":"bool"}],"stateMutability":"view"},{"type":"function","name":"updateDelay","inputs":[{"name":"newDelay","type":"uint256","internalType":"uint256"}],"outputs":[],"stateMutability":"nonpayable"},{"type":"event","name":"CallExecuted","inputs":[{"name":"id","type":"bytes32","indexed":true,"internalType":"bytes32"},{"name":"index","type":"uint256","indexed":true,"internalType":"uint256"},{"name":"target","type":"address","indexed":false,"internalType":"address"},{"name":"value","type":"uint256","indexed":false,"internalType":"uint256"},{"name":"data","type":"bytes","indexed":false,"internalType":"bytes"}],"anonymous":false},{"type":"event","name":"CallScheduled","inputs":[{"name":"id","type":"bytes32","indexed":true,"internalType":"bytes32"},{"name":"index","type":"uint256","indexed":true,"internalType":"uint256"},{"name":"target","type":"address","indexed":false,"internalType":"address"},{"name":"value","type":"uint256","indexed":false,"internalType":"uint256"},{"name":"data","type":"bytes","indexed":false,"internalType":"bytes"},{"name":"predecessor","type":"bytes32","indexed":false,"internalType":"bytes32"},{"name":"delay","type":"uint256","indexed":false,"internalType":"uint256"}],"anonymous":false},{"type":"event","name":"Cancelled","inputs":[{"name":"id","type":"bytes32","indexed":true,"internalType":"bytes32"}],"anonymous":false},{"type":"event","name":"MinDelayChange","inputs":[{"name":"oldDuration","type":"uint256","indexed":false,"internalType":"uint256"},{"name":"newDuration","type":"uint256","indexed":false,"internalType":"uint256"}],"anonymous":false},{"type":"event","name":"RoleAdminChanged","inputs":[{"name":"role","type":"bytes32","indexed":true,"internalType":"bytes32"},{"name":"previousAdminRole","type":"bytes32","indexed":true,"internalType":"bytes32"},{"name":"newAdminRole","type":"bytes32","indexed":true,"internalType":"bytes32"}],"anonymous":false},{"type":"event","name":"RoleGranted","inputs":[{"name":"role","type":"bytes32","indexed":true,"internalType":"bytes32"},{"name":"account","type":"address","indexed":true,"internalType":"address"},{"name":"sender","type":"address","indexed":true,"internalType":"address"}],"anonymous":false},{"type":"event","name":"RoleRevoked","inputs":[{"name":"role","type":"bytes32","indexed":true,"internalType":"bytes32"},{"name":"account","type":"address","indexed":true,"internalType":"address"},{"name":"sender","type":"address","indexed":true,"internalType":"address"}],"anonymous":false}],"bytecode":{"object":"0x608060405234801561000f575f5ffd5b5060405161395738038061395783398181016040528101906100319190610713565b828282336100657f5f58e3a2316349923ce3780f8d587db2d72378aed66a8261c916544fa6846ca58061034760201b60201c565b6100b57fb09aa5aeb3702cfd50b6b62bc4532604938f21248a27a1d5ca736082b6819cc17f5f58e3a2316349923ce3780f8d587db2d72378aed66a8261c916544fa6846ca561034760201b60201c565b6101057fd8aa0f3194971a2a116679f7c2090f6939c8d4e01a2a8d7e41d55e5351469e637f5f58e3a2316349923ce3780f8d587db2d72378aed66a8261c916544fa6846ca561034760201b60201c565b6101557ffd643c72710c63c0180259aba6b2d05451e3591a24e58b62239378085726f7837f5f58e3a2316349923ce3780f8d587db2d72378aed66a8261c916544fa6846ca561034760201b60201c565b6101857f5f58e3a2316349923ce3780f8d587db2d72378aed66a8261c916544fa6846ca5306103a560201b60201c565b5f73ffffffffffffffffffffffffffffffffffffffff168173ffffffffffffffffffffffffffffffffffffffff16146101e9576101e87f5f58e3a2316349923ce3780f8d587db2d72378aed66a8261c916544fa6846ca5826103a560201b60201c565b5b5f5f90505b8351811015610296576102417fb09aa5aeb3702cfd50b6b62bc4532604938f21248a27a1d5ca736082b6819cc185838151811061022e5761022d61079b565b5b60200260200101516103a560201b60201c565b61028b7ffd643c72710c63c0180259aba6b2d05451e3591a24e58b62239378085726f7838583815181106102785761027761079b565b5b60200260200101516103a560201b60201c565b8060010190506101ee565b505f5f90505b82518110156102fa576102ef7fd8aa0f3194971a2a116679f7c2090f6939c8d4e01a2a8d7e41d55e5351469e638483815181106102dc576102db61079b565b5b60200260200101516103a560201b60201c565b80600101905061029c565b50836002819055507f11c24f4ead16507c69ac467fbd5e4eed5fb5c699626d2cc6d66421df253886d55f85604051610333929190610819565b60405180910390a150505050505050610840565b5f610357836103b960201b60201c565b9050815f5f8581526020019081526020015f20600101819055508181847fbd79b86ffe0ab8e8776151514217cd7cacd52c909f66475c3af44e129f0b00ff60405160405180910390a4505050565b6103b582826103d560201b60201c565b5050565b5f5f5f8381526020019081526020015f20600101549050919050565b6103e582826104bb60201b60201c565b6104b75760015f5f8481526020019081526020015f205f015f8373ffffffffffffffffffffffffffffffffffffffff1673ffffffffffffffffffffffffffffffffffffffff1681526020019081526020015f205f6101000a81548160ff02191690831515021790555061045c61051e60201b60201c565b73ffffffffffffffffffffffffffffffffffffffff168173ffffffffffffffffffffffffffffffffffffffff16837f2f8788117e7eff1d82e926ec794901d17c78024a50270940304540a733656f0d60405160405180910390a45b5050565b5f5f5f8481526020019081526020015f205f015f8373ffffffffffffffffffffffffffffffffffffffff1673ffffffffffffffffffffffffffffffffffffffff1681526020019081526020015f205f9054906101000a900460ff16905092915050565b5f33905090565b5f604051905090565b5f5ffd5b5f5ffd5b5f819050919050565b61054881610536565b8114610552575f5ffd5b50565b5f815190506105638161053f565b92915050565b5f5ffd5b5f601f19601f8301169050919050565b7f4e487b71000000000000000000000000000000000000000000000000000000005f52604160045260245ffd5b6105b38261056d565b810181811067ffffffffffffffff821117156105d2576105d161057d565b5b80604052505050565b5f6105e4610525565b90506105f082826105aa565b919050565b5f67ffffffffffffffff82111561060f5761060e61057d565b5b602082029050602081019050919050565b5f5ffd5b5f73ffffffffffffffffffffffffffffffffffffffff82169050919050565b5f61064d82610624565b9050919050565b61065d81610643565b8114610667575f5ffd5b50565b5f8151905061067881610654565b92915050565b5f61069061068b846105f5565b6105db565b905080838252602082019050602084028301858111156106b3576106b2610620565b5b835b818110156106dc57806106c8888261066a565b8452602084019350506020810190506106b5565b5050509392505050565b5f82601f8301126106fa576106f9610569565b5b815161070a84826020860161067e565b91505092915050565b5f5f5f6060848603121561072a5761072961052e565b5b5f61073786828701610555565b935050602084015167ffffffffffffffff81111561075857610757610532565b5b610764868287016106e6565b925050604084015167ffffffffffffffff81111561078557610784610532565b5b610791868287016106e6565b9150509250925092565b7f4e487b71000000000000000000000000000000000000000000000000000000005f52603260045260245ffd5b5f819050919050565b5f819050919050565b5f6107f46107ef6107ea846107c8565b6107d1565b610536565b9050919050565b610804816107da565b82525050565b61081381610536565b82525050565b5f60408201905061082c5f8301856107fb565b610839602083018461080a565b9392505050565b61310a8061084d5f395ff3fe6080604052600436106101ba575f3560e01c80638065657f116100eb578063bc197c8111610089578063d547741f11610063578063d547741f14610673578063e38335e51461069b578063f23a6e61146106b7578063f27a0c92146106f3576101c1565b8063bc197c81146105d3578063c4d252f51461060f578063d45c443514610637576101c1565b806391d14854116100c557806391d1485414610507578063a217fddf14610543578063b08e51c01461056d578063b1c5f42714610597576101c1565b80638065657f146104795780638f2a0bb0146104b55780638f61f4f5146104dd576101c1565b8063248a9ca31161015857806331d507501161013257806331d50750146103b157806336568abe146103ed578063584b153e1461041557806364d6235314610451576101c1565b8063248a9ca3146103115780632ab0f5291461034d5780632f2ff15d14610389576101c1565b80630d3cf6fc116101945780630d3cf6fc14610253578063134008d31461027d57806313bc9f2014610299578063150b7a02146102d5576101c1565b806301d5062a146101c557806301ffc9a7146101ed57806307bd026514610229576101c1565b366101c157005b5f5ffd5b3480156101d0575f5ffd5b506101eb60048036038101906101e69190611a23565b61071d565b005b3480156101f8575f5ffd5b50610213600480360381019061020e9190611b22565b6107b0565b6040516102209190611b67565b60405180910390f35b348015610234575f5ffd5b5061023d610829565b60405161024a9190611b8f565b60405180910390f35b34801561025e575f5ffd5b5061026761084d565b6040516102749190611b8f565b60405180910390f35b61029760048036038101906102929190611ba8565b610871565b005b3480156102a4575f5ffd5b506102bf60048036038101906102ba9190611c3e565b61092b565b6040516102cc9190611b67565b60405180910390f35b3480156102e0575f5ffd5b506102fb60048036038101906102f69190611da1565b610950565b6040516103089190611e30565b60405180910390f35b34801561031c575f5ffd5b5061033760048036038101906103329190611c3e565b610963565b6040516103449190611b8f565b60405180910390f35b348015610358575f5ffd5b50610373600480360381019061036e9190611c3e565b61097f565b6040516103809190611b67565b60405180910390f35b348015610394575f5ffd5b506103af60048036038101906103aa9190611e49565b610993565b005b3480156103bc575f5ffd5b506103d760048036038101906103d29190611c3e565b6109b4565b6040516103e49190611b67565b60405180910390f35b3480156103f8575f5ffd5b50610413600480360381019061040e9190611e49565b6109c7565b005b348015610420575f5ffd5b5061043b60048036038101906104369190611c3e565b610a4a565b6040516104489190611b67565b60405180910390f35b34801561045c575f5ffd5b5061047760048036038101906104729190611e87565b610a5e565b005b348015610484575f5ffd5b5061049f600480360381019061049a9190611ba8565b610b11565b6040516104ac9190611b8f565b60405180910390f35b3480156104c0575f5ffd5b506104db60048036038101906104d69190611fb1565b610b4f565b005b3480156104e8575f5ffd5b506104f1610cf5565b6040516104fe9190611b8f565b60405180910390f35b348015610512575f5ffd5b5061052d60048036038101906105289190611e49565b610d19565b60405161053a9190611b67565b60405180910390f35b34801561054e575f5ffd5b50610557610d7c565b6040516105649190611b8f565b60405180910390f35b348015610578575f5ffd5b50610581610d82565b60405161058e9190611b8f565b60405180910390f35b3480156105a2575f5ffd5b506105bd60048036038101906105b8919061209a565b610da6565b6040516105ca9190611b8f565b60405180910390f35b3480156105de575f5ffd5b506105f960048036038101906105f49190612231565b610dea565b6040516106069190611e30565b60405180910390f35b34801561061a575f5ffd5b5061063560048036038101906106309190611c3e565b610dfe565b005b348015610642575f5ffd5b5061065d60048036038101906106589190611c3e565b610eb5565b60405161066a919061230b565b60405180910390f35b34801561067e575f5ffd5b5061069960048036038101906106949190611e49565b610ecf565b005b6106b560048036038101906106b0919061209a565b610ef0565b005b3480156106c2575f5ffd5b506106dd60048036038101906106d89190612324565b6110d1565b6040516106ea9190611e30565b60405180910390f35b3480156106fe575f5ffd5b506107076110e5565b604051610714919061230b565b60405180910390f35b7fb09aa5aeb3702cfd50b6b62bc4532604938f21248a27a1d5ca736082b6819cc1610747816110ee565b5f610756898989898989610b11565b90506107628184611102565b5f817f4cf4410cc57040e44862ef0f45f3dd5a5e02db8eb8add648d4b0e236f1d07dca8b8b8b8b8b8a60405161079d96959493929190612402565b60405180910390a3505050505050505050565b5f7f4e2312e0000000000000000000000000000000000000000000000000000000007bffffffffffffffffffffffffffffffffffffffffffffffffffffffff1916827bffffffffffffffffffffffffffffffffffffffffffffffffffffffff191614806108225750610821826111ba565b5b9050919050565b7fd8aa0f3194971a2a116679f7c2090f6939c8d4e01a2a8d7e41d55e5351469e6381565b7f5f58e3a2316349923ce3780f8d587db2d72378aed66a8261c916544fa6846ca581565b7fd8aa0f3194971a2a116679f7c2090f6939c8d4e01a2a8d7e41d55e5351469e6361089c815f610d19565b6108b2576108b1816108ac611233565b61123a565b5b5f6108c1888888888888610b11565b90506108cd81856112be565b6108d98888888861135e565b5f817fc2617efa69bab66782fa219543714338489c4e9e178271560a91b82c3f612b588a8a8a8a604051610910949392919061245c565b60405180910390a361092181611411565b5050505050505050565b5f5f61093683610eb5565b90506001811180156109485750428111155b915050919050565b5f63150b7a0260e01b9050949350505050565b5f5f5f8381526020019081526020015f20600101549050919050565b5f600161098b83610eb5565b149050919050565b61099c82610963565b6109a5816110ee565b6109af8383611472565b505050565b5f5f6109bf83610eb5565b119050919050565b6109cf611233565b73ffffffffffffffffffffffffffffffffffffffff168173ffffffffffffffffffffffffffffffffffffffff1614610a3c576040517f08c379a0000000000000000000000000000000000000000000000000000000008152600401610a339061251a565b60405180910390fd5b610a46828261154c565b5050565b5f6001610a5683610eb5565b119050919050565b3073ffffffffffffffffffffffffffffffffffffffff163373ffffffffffffffffffffffffffffffffffffffff1614610acc576040517f08c379a0000000000000000000000000000000000000000000000000000000008152600401610ac3906125a8565b60405180910390fd5b7f11c24f4ead16507c69ac467fbd5e4eed5fb5c699626d2cc6d66421df253886d560025482604051610aff9291906125c6565b60405180910390a18060028190555050565b5f868686868686604051602001610b2d969594939291906125ed565b6040516020818303038152906040528051906020012090509695505050505050565b7fb09aa5aeb3702cfd50b6b62bc4532604938f21248a27a1d5ca736082b6819cc1610b79816110ee565b878790508a8a905014610bc1576040517f08c379a0000000000000000000000000000000000000000000000000000000008152600401610bb8906126b7565b60405180910390fd5b858590508a8a905014610c09576040517f08c379a0000000000000000000000000000000000000000000000000000000008152600401610c00906126b7565b60405180910390fd5b5f610c1a8b8b8b8b8b8b8b8b610da6565b9050610c268184611102565b5f5f90505b8b8b9050811015610ce75780827f4cf4410cc57040e44862ef0f45f3dd5a5e02db8eb8add648d4b0e236f1d07dca8e8e85818110610c6c57610c6b6126d5565b5b9050602002016020810190610c819190612702565b8d8d86818110610c9457610c936126d5565b5b905060200201358c8c87818110610cae57610cad6126d5565b5b9050602002810190610cc09190612739565b8c8b604051610cd496959493929190612402565b60405180910390a3806001019050610c2b565b505050505050505050505050565b7fb09aa5aeb3702cfd50b6b62bc4532604938f21248a27a1d5ca736082b6819cc181565b5f5f5f8481526020019081526020015f205f015f8373ffffffffffffffffffffffffffffffffffffffff1673ffffffffffffffffffffffffffffffffffffffff1681526020019081526020015f205f9054906101000a900460ff16905092915050565b5f5f1b81565b7ffd643c72710c63c0180259aba6b2d05451e3591a24e58b62239378085726f78381565b5f8888888888888888604051602001610dc6989796959493929190612a27565b60405160208183030381529060405280519060200120905098975050505050505050565b5f63bc197c8160e01b905095945050505050565b7ffd643c72710c63c0180259aba6b2d05451e3591a24e58b62239378085726f783610e28816110ee565b610e3182610a4a565b610e70576040517f08c379a0000000000000000000000000000000000000000000000000000000008152600401610e6790612b03565b60405180910390fd5b60015f8381526020019081526020015f205f9055817fbaa1eb22f2a492ba1a5fea61b8df4d27c6c8b5f3971e63bb58fa14ff72eedb7060405160405180910390a25050565b5f60015f8381526020019081526020015f20549050919050565b610ed882610963565b610ee1816110ee565b610eeb838361154c565b505050565b7fd8aa0f3194971a2a116679f7c2090f6939c8d4e01a2a8d7e41d55e5351469e63610f1b815f610d19565b610f3157610f3081610f2b611233565b61123a565b5b868690508989905014610f79576040517f08c379a0000000000000000000000000000000000000000000000000000000008152600401610f70906126b7565b60405180910390fd5b848490508989905014610fc1576040517f08c379a0000000000000000000000000000000000000000000000000000000008152600401610fb8906126b7565b60405180910390fd5b5f610fd28a8a8a8a8a8a8a8a610da6565b9050610fde81856112be565b5f5f90505b8a8a90508110156110bb575f8b8b83818110611002576110016126d5565b5b90506020020160208101906110179190612702565b90505f8a8a8481811061102d5761102c6126d5565b5b905060200201359050365f8a8a8681811061104b5761104a6126d5565b5b905060200281019061105d9190612739565b9150915061106d8484848461135e565b84867fc2617efa69bab66782fa219543714338489c4e9e178271560a91b82c3f612b58868686866040516110a4949392919061245c565b60405180910390a350505050806001019050610fe3565b506110c581611411565b50505050505050505050565b5f63f23a6e6160e01b905095945050505050565b5f600254905090565b6110ff816110fa611233565b61123a565b50565b61110b826109b4565b1561114b576040517f08c379a000000000000000000000000000000000000000000000000000000000815260040161114290612b91565b60405180910390fd5b6111536110e5565b811015611195576040517f08c379a000000000000000000000000000000000000000000000000000000000815260040161118c90612c1f565b60405180910390fd5b80426111a19190612c6a565b60015f8481526020019081526020015f20819055505050565b5f7f7965db0b000000000000000000000000000000000000000000000000000000007bffffffffffffffffffffffffffffffffffffffffffffffffffffffff1916827bffffffffffffffffffffffffffffffffffffffffffffffffffffffff1916148061122c575061122b82611626565b5b9050919050565b5f33905090565b6112448282610d19565b6112ba576112518161168f565b61125e835f1c60206116bc565b60405160200161126f929190612d83565b6040516020818303038152906040526040517f08c379a00000000000000000000000000000000000000000000000000000000081526004016112b19190612df4565b60405180910390fd5b5050565b6112c78261092b565b611306576040517f08c379a00000000000000000000000000000000000000000000000000000000081526004016112fd90612e84565b60405180910390fd5b5f5f1b81148061131b575061131a8161097f565b5b61135a576040517f08c379a000000000000000000000000000000000000000000000000000000000815260040161135190612f12565b60405180910390fd5b5050565b5f8473ffffffffffffffffffffffffffffffffffffffff16848484604051611387929190612f5e565b5f6040518083038185875af1925050503d805f81146113c1576040519150601f19603f3d011682016040523d82523d5f602084013e6113c6565b606091505b505090508061140a576040517f08c379a000000000000000000000000000000000000000000000000000000000815260040161140190612fe6565b60405180910390fd5b5050505050565b61141a8161092b565b611459576040517f08c379a000000000000000000000000000000000000000000000000000000000815260040161145090612e84565b60405180910390fd5b6001805f8381526020019081526020015f208190555050565b61147c8282610d19565b6115485760015f5f8481526020019081526020015f205f015f8373ffffffffffffffffffffffffffffffffffffffff1673ffffffffffffffffffffffffffffffffffffffff1681526020019081526020015f205f6101000a81548160ff0219169083151502179055506114ed611233565b73ffffffffffffffffffffffffffffffffffffffff168173ffffffffffffffffffffffffffffffffffffffff16837f2f8788117e7eff1d82e926ec794901d17c78024a50270940304540a733656f0d60405160405180910390a45b5050565b6115568282610d19565b15611622575f5f5f8481526020019081526020015f205f015f8373ffffffffffffffffffffffffffffffffffffffff1673ffffffffffffffffffffffffffffffffffffffff1681526020019081526020015f205f6101000a81548160ff0219169083151502179055506115c7611233565b73ffffffffffffffffffffffffffffffffffffffff168173ffffffffffffffffffffffffffffffffffffffff16837ff6391f5c32d9c69d2a47ea670b442974b53935d1edc7fd64eb21e047a839171b60405160405180910390a45b5050565b5f7f01ffc9a7000000000000000000000000000000000000000000000000000000007bffffffffffffffffffffffffffffffffffffffffffffffffffffffff1916827bffffffffffffffffffffffffffffffffffffffffffffffffffffffff1916149050919050565b60606116b58273ffffffffffffffffffffffffffffffffffffffff16601460ff166116bc565b9050919050565b60605f60028360026116ce9190613004565b6116d89190612c6a565b67ffffffffffffffff8111156116f1576116f0611c7d565b5b6040519080825280601f01601f1916602001820160405280156117235781602001600182028036833780820191505090505b5090507f3000000000000000000000000000000000000000000000000000000000000000815f8151811061175a576117596126d5565b5b60200101907effffffffffffffffffffffffffffffffffffffffffffffffffffffffffffff191690815f1a9053507f7800000000000000000000000000000000000000000000000000000000000000816001815181106117bd576117bc6126d5565b5b60200101907effffffffffffffffffffffffffffffffffffffffffffffffffffffffffffff191690815f1a9053505f60018460026117fb9190613004565b6118059190612c6a565b90505b60018111156118a4577f3031323334353637383961626364656600000000000000000000000000000000600f861660108110611847576118466126d5565b5b1a60f81b82828151811061185e5761185d6126d5565b5b60200101907effffffffffffffffffffffffffffffffffffffffffffffffffffffffffffff191690815f1a905350600485901c94508061189d90613045565b9050611808565b505f84146118e7576040517f08c379a00000000000000000000000000000000000000000000000000000000081526004016118de906130b6565b60405180910390fd5b8091505092915050565b5f604051905090565b5f5ffd5b5f5ffd5b5f73ffffffffffffffffffffffffffffffffffffffff82169050919050565b5f61192b82611902565b9050919050565b61193b81611921565b8114611945575f5ffd5b50565b5f8135905061195681611932565b92915050565b5f819050919050565b61196e8161195c565b8114611978575f5ffd5b50565b5f8135905061198981611965565b92915050565b5f5ffd5b5f5ffd5b5f5ffd5b5f5f83601f8401126119b0576119af61198f565b5b8235905067ffffffffffffffff8111156119cd576119cc611993565b5b6020830191508360018202830111156119e9576119e8611997565b5b9250929050565b5f819050919050565b611a02816119f0565b8114611a0c575f5ffd5b50565b5f81359050611a1d816119f9565b92915050565b5f5f5f5f5f5f5f60c0888a031215611a3e57611a3d6118fa565b5b5f611a4b8a828b01611948565b9750506020611a5c8a828b0161197b565b965050604088013567ffffffffffffffff811115611a7d57611a7c6118fe565b5b611a898a828b0161199b565b95509550506060611a9c8a828b01611a0f565b9350506080611aad8a828b01611a0f565b92505060a0611abe8a828b0161197b565b91505092959891949750929550565b5f7fffffffff0000000000000000000000000000000000000000000000000000000082169050919050565b611b0181611acd565b8114611b0b575f5ffd5b50565b5f81359050611b1c81611af8565b92915050565b5f60208284031215611b3757611b366118fa565b5b5f611b4484828501611b0e565b91505092915050565b5f8115159050919050565b611b6181611b4d565b82525050565b5f602082019050611b7a5f830184611b58565b92915050565b611b89816119f0565b82525050565b5f602082019050611ba25f830184611b80565b92915050565b5f5f5f5f5f5f60a08789031215611bc257611bc16118fa565b5b5f611bcf89828a01611948565b9650506020611be089828a0161197b565b955050604087013567ffffffffffffffff811115611c0157611c006118fe565b5b611c0d89828a0161199b565b94509450506060611c2089828a01611a0f565b9250506080611c3189828a01611a0f565b9150509295509295509295565b5f60208284031215611c5357611c526118fa565b5b5f611c6084828501611a0f565b91505092915050565b5f5ffd5b5f601f19601f8301169050919050565b7f4e487b71000000000000000000000000000000000000000000000000000000005f52604160045260245ffd5b611cb382611c6d565b810181811067ffffffffffffffff82111715611cd257611cd1611c7d565b5b80604052505050565b5f611ce46118f1565b9050611cf08282611caa565b919050565b5f67ffffffffffffffff821115611d0f57611d0e611c7d565b5b611d1882611c6d565b9050602081019050919050565b828183375f83830152505050565b5f611d45611d4084611cf5565b611cdb565b905082815260208101848484011115611d6157611d60611c69565b5b611d6c848285611d25565b509392505050565b5f82601f830112611d8857611d8761198f565b5b8135611d98848260208601611d33565b91505092915050565b5f5f5f5f60808587031215611db957611db86118fa565b5b5f611dc687828801611948565b9450506020611dd787828801611948565b9350506040611de88782880161197b565b925050606085013567ffffffffffffffff811115611e0957611e086118fe565b5b611e1587828801611d74565b91505092959194509250565b611e2a81611acd565b82525050565b5f602082019050611e435f830184611e21565b92915050565b5f5f60408385031215611e5f57611e5e6118fa565b5b5f611e6c85828601611a0f565b9250506020611e7d85828601611948565b9150509250929050565b5f60208284031215611e9c57611e9b6118fa565b5b5f611ea98482850161197b565b91505092915050565b5f5f83601f840112611ec757611ec661198f565b5b8235905067ffffffffffffffff811115611ee457611ee3611993565b5b602083019150836020820283011115611f0057611eff611997565b5b9250929050565b5f5f83601f840112611f1c57611f1b61198f565b5b8235905067ffffffffffffffff811115611f3957611f38611993565b5b602083019150836020820283011115611f5557611f54611997565b5b9250929050565b5f5f83601f840112611f7157611f7061198f565b5b8235905067ffffffffffffffff811115611f8e57611f8d611993565b5b602083019150836020820283011115611faa57611fa9611997565b5b9250929050565b5f5f5f5f5f5f5f5f5f60c08a8c031215611fce57611fcd6118fa565b5b5f8a013567ffffffffffffffff811115611feb57611fea6118fe565b5b611ff78c828d01611eb2565b995099505060208a013567ffffffffffffffff81111561201a576120196118fe565b5b6120268c828d01611f07565b975097505060408a013567ffffffffffffffff811115612049576120486118fe565b5b6120558c828d01611f5c565b955095505060606120688c828d01611a0f565b93505060806120798c828d01611a0f565b92505060a061208a8c828d0161197b565b9150509295985092959850929598565b5f5f5f5f5f5f5f5f60a0898b0312156120b6576120b56118fa565b5b5f89013567ffffffffffffffff8111156120d3576120d26118fe565b5b6120df8b828c01611eb2565b9850985050602089013567ffffffffffffffff811115612102576121016118fe565b5b61210e8b828c01611f07565b9650965050604089013567ffffffffffffffff811115612131576121306118fe565b5b61213d8b828c01611f5c565b945094505060606121508b828c01611a0f565b92505060806121618b828c01611a0f565b9150509295985092959890939650565b5f67ffffffffffffffff82111561218b5761218a611c7d565b5b602082029050602081019050919050565b5f6121ae6121a984612171565b611cdb565b905080838252602082019050602084028301858111156121d1576121d0611997565b5b835b818110156121fa57806121e6888261197b565b8452602084019350506020810190506121d3565b5050509392505050565b5f82601f8301126122185761221761198f565b5b813561222884826020860161219c565b91505092915050565b5f5f5f5f5f60a0868803121561224a576122496118fa565b5b5f61225788828901611948565b955050602061226888828901611948565b945050604086013567ffffffffffffffff811115612289576122886118fe565b5b61229588828901612204565b935050606086013567ffffffffffffffff8111156122b6576122b56118fe565b5b6122c288828901612204565b925050608086013567ffffffffffffffff8111156122e3576122e26118fe565b5b6122ef88828901611d74565b9150509295509295909350565b6123058161195c565b82525050565b5f60208201905061231e5f8301846122fc565b92915050565b5f5f5f5f5f60a0868803121561233d5761233c6118fa565b5b5f61234a88828901611948565b955050602061235b88828901611948565b945050604061236c8882890161197b565b935050606061237d8882890161197b565b925050608086013567ffffffffffffffff81111561239e5761239d6118fe565b5b6123aa88828901611d74565b9150509295509295909350565b6123c081611921565b82525050565b5f82825260208201905092915050565b5f6123e183856123c6565b93506123ee838584611d25565b6123f783611c6d565b840190509392505050565b5f60a0820190506124155f8301896123b7565b61242260208301886122fc565b81810360408301526124358186886123d6565b90506124446060830185611b80565b61245160808301846122fc565b979650505050505050565b5f60608201905061246f5f8301876123b7565b61247c60208301866122fc565b818103604083015261248f8184866123d6565b905095945050505050565b5f82825260208201905092915050565b7f416363657373436f6e74726f6c3a2063616e206f6e6c792072656e6f756e63655f8201527f20726f6c657320666f722073656c660000000000000000000000000000000000602082015250565b5f612504602f8361249a565b915061250f826124aa565b604082019050919050565b5f6020820190508181035f830152612531816124f8565b9050919050565b7f54696d656c6f636b436f6e74726f6c6c65723a2063616c6c6572206d757374205f8201527f62652074696d656c6f636b000000000000000000000000000000000000000000602082015250565b5f612592602b8361249a565b915061259d82612538565b604082019050919050565b5f6020820190508181035f8301526125bf81612586565b9050919050565b5f6040820190506125d95f8301856122fc565b6125e660208301846122fc565b9392505050565b5f60a0820190506126005f8301896123b7565b61260d60208301886122fc565b81810360408301526126208186886123d6565b905061262f6060830185611b80565b61263c6080830184611b80565b979650505050505050565b7f54696d656c6f636b436f6e74726f6c6c65723a206c656e677468206d69736d615f8201527f7463680000000000000000000000000000000000000000000000000000000000602082015250565b5f6126a160238361249a565b91506126ac82612647565b604082019050919050565b5f6020820190508181035f8301526126ce81612695565b9050919050565b7f4e487b71000000000000000000000000000000000000000000000000000000005f52603260045260245ffd5b5f60208284031215612717576127166118fa565b5b5f61272484828501611948565b91505092915050565b5f5ffd5b5f5ffd5b5f5ffd5b5f5f833560016020038436030381126127555761275461272d565b5b80840192508235915067ffffffffffffffff82111561277757612776612731565b5b60208301925060018202360383131561279357612792612735565b5b509250929050565b5f82825260208201905092915050565b5f819050919050565b6127bd81611921565b82525050565b5f6127ce83836127b4565b60208301905092915050565b5f6127e86020840184611948565b905092915050565b5f602082019050919050565b5f612807838561279b565b9350612812826127ab565b805f5b8581101561284a5761282782846127da565b61283188826127c3565b975061283c836127f0565b925050600181019050612815565b5085925050509392505050565b5f82825260208201905092915050565b5f5ffd5b82818337505050565b5f61287f8385612857565b93507f07ffffffffffffffffffffffffffffffffffffffffffffffffffffffffffffff8311156128b2576128b1612867565b5b6020830292506128c383858461286b565b82840190509392505050565b5f82825260208201905092915050565b5f819050919050565b5f82825260208201905092915050565b5f61290383856128e8565b9350612910838584611d25565b61291983611c6d565b840190509392505050565b5f6129308484846128f8565b90509392505050565b5f5ffd5b5f5ffd5b5f5ffd5b5f5f8335600160200384360303811261296157612960612941565b5b83810192508235915060208301925067ffffffffffffffff82111561298957612988612939565b5b60018202360383131561299f5761299e61293d565b5b509250929050565b5f602082019050919050565b5f6129be83856128cf565b9350836020840285016129d0846128df565b805f5b87811015612a155784840389526129ea8284612945565b6129f5868284612924565b9550612a00846129a7565b935060208b019a5050506001810190506129d3565b50829750879450505050509392505050565b5f60a0820190508181035f830152612a40818a8c6127fc565b90508181036020830152612a5581888a612874565b90508181036040830152612a6a8186886129b3565b9050612a796060830185611b80565b612a866080830184611b80565b9998505050505050505050565b7f54696d656c6f636b436f6e74726f6c6c65723a206f7065726174696f6e2063615f8201527f6e6e6f742062652063616e63656c6c6564000000000000000000000000000000602082015250565b5f612aed60318361249a565b9150612af882612a93565b604082019050919050565b5f6020820190508181035f830152612b1a81612ae1565b9050919050565b7f54696d656c6f636b436f6e74726f6c6c65723a206f7065726174696f6e20616c5f8201527f7265616479207363686564756c65640000000000000000000000000000000000602082015250565b5f612b7b602f8361249a565b9150612b8682612b21565b604082019050919050565b5f6020820190508181035f830152612ba881612b6f565b9050919050565b7f54696d656c6f636b436f6e74726f6c6c65723a20696e73756666696369656e745f8201527f2064656c61790000000000000000000000000000000000000000000000000000602082015250565b5f612c0960268361249a565b9150612c1482612baf565b604082019050919050565b5f6020820190508181035f830152612c3681612bfd565b9050919050565b7f4e487b71000000000000000000000000000000000000000000000000000000005f52601160045260245ffd5b5f612c748261195c565b9150612c7f8361195c565b9250828201905080821115612c9757612c96612c3d565b5b92915050565b5f81905092915050565b7f416363657373436f6e74726f6c3a206163636f756e74200000000000000000005f82015250565b5f612cdb601783612c9d565b9150612ce682612ca7565b601782019050919050565b5f81519050919050565b8281835e5f83830152505050565b5f612d1382612cf1565b612d1d8185612c9d565b9350612d2d818560208601612cfb565b80840191505092915050565b7f206973206d697373696e6720726f6c65200000000000000000000000000000005f82015250565b5f612d6d601183612c9d565b9150612d7882612d39565b601182019050919050565b5f612d8d82612ccf565b9150612d998285612d09565b9150612da482612d61565b9150612db08284612d09565b91508190509392505050565b5f612dc682612cf1565b612dd0818561249a565b9350612de0818560208601612cfb565b612de981611c6d565b840191505092915050565b5f6020820190508181035f830152612e0c8184612dbc565b905092915050565b7f54696d656c6f636b436f6e74726f6c6c65723a206f7065726174696f6e2069735f8201527f206e6f7420726561647900000000000000000000000000000000000000000000602082015250565b5f612e6e602a8361249a565b9150612e7982612e14565b604082019050919050565b5f6020820190508181035f830152612e9b81612e62565b9050919050565b7f54696d656c6f636b436f6e74726f6c6c65723a206d697373696e6720646570655f8201527f6e64656e63790000000000000000000000000000000000000000000000000000602082015250565b5f612efc60268361249a565b9150612f0782612ea2565b604082019050919050565b5f6020820190508181035f830152612f2981612ef0565b9050919050565b5f81905092915050565b5f612f458385612f30565b9350612f52838584611d25565b82840190509392505050565b5f612f6a828486612f3a565b91508190509392505050565b7f54696d656c6f636b436f6e74726f6c6c65723a20756e6465726c79696e6720745f8201527f72616e73616374696f6e20726576657274656400000000000000000000000000602082015250565b5f612fd060338361249a565b9150612fdb82612f76565b604082019050919050565b5f6020820190508181035f830152612ffd81612fc4565b9050919050565b5f61300e8261195c565b91506130198361195c565b92508282026130278161195c565b9150828204841483151761303e5761303d612c3d565b5b5092915050565b5f61304f8261195c565b91505f820361306157613060612c3d565b5b600182039050919050565b7f537472696e67733a20686578206c656e67746820696e73756666696369656e745f82015250565b5f6130a060208361249a565b91506130ab8261306c565b602082019050919050565b5f6020820190508181035f8301526130cd81613094565b905091905056fea2646970667358221220d2eb776556f0befa2b464a8b518d068bcab9ef6c8545f3afc47499baf8fcd04964736f6c634300081c0033","linkReferences":{}},"methodIdentifiers":{"CANCELLER_ROLE()":"b08e51c0","DEFAULT_ADMIN_ROLE()":"a217fddf","EXECUTOR_ROLE()":"07bd0265","PROPOSER_ROLE()":"8f61f4f5","TIMELOCK_ADMIN_ROLE()":"0d3cf6fc","cancel(bytes32)":"c4d252f5","execute(address,uint256,bytes,bytes32,bytes32)":"134008d3","executeBatch(address[],uint256[],bytes[],bytes32,bytes32)":"e38335e5","getMinDelay()":"f27a0c92","getRoleAdmin(bytes32)":"248a9ca3","getTimestamp(bytes32)":"d45c4435","grantRole(bytes32,address)":"2f2ff15d","hasRole(bytes32,address)":"91d14854","hashOperation(address,uint256,bytes,bytes32,bytes32)":"8065657f","hashOperationBatch(address[],uint256[],bytes[],bytes32,bytes32)":"b1c5f427","isOperation(bytes32)":"31d50750","isOperationDone(bytes32)":"2ab0f529","isOperationPending(bytes32)":"584b153e","isOperationReady(bytes32)":"13bc9f20","onERC1155BatchReceived(address,address,uint256[],uint256[],bytes)":"bc197c81","onERC1155Received(address,address,uint256,uint256,bytes)":"f23a6e61","onERC721Received(address,address,uint256,bytes)":"150b7a02","renounceRole(bytes32,address)":"36568abe","revokeRole(bytes32,address)":"d547741f","schedule(address,uint256,bytes,bytes32,bytes32,uint256)":"01d5062a","scheduleBatch(address[],uint256[],bytes[],bytes32,bytes32,uint256)":"8f2a0bb0","supportsInterface(bytes4)":"01ffc9a7","updateDelay(uint256)":"64d62353"},"id":56}