{"abi":[{"type":"constructor","inputs":[{"name":"_token","type":"address","internalType":"contract IVotes"},{"name":"_timelock","type":"address","internalType":"contract TimelockController"}],"stateMutability":"nonpayable"},{"type":"receive","stateMutability":"payable"},{"type":"function","name":"BALLOT_TYPEHASH","inputs":[],"outputs":[{"name":"","type":"bytes32","internalType":"bytes32"}],"stateMutability":"view"},{"type":"function","name":"COUNTING_MODE","inputs":[],"outputs":[{"name":"","type":"string","internalType":"string"}],"stateMutability":"pure"},{"type":"function","name":"EXTENDED_BALLOT_TYPEHASH","inputs":[],"outputs":[{"name":"","type":"bytes32","internalType":"bytes32"}],"stateMutability":"view"},{"type":"function","name":"castVote","inputs":[{"name":"proposalId","type":"uint256","internalType":"uint256"},{"name":"support","type":"uint8","internalType":"uint8"}],"outputs":[{"name":"","type":"uint256","internalType":"uint256"}],"stateMutability":"nonpayable"},{"type":"function","name":"castVoteBySig","inputs":[{"name":"proposalId","type":"uint256","internalType":"uint256"},{"name":"support","type":"uint8","internalType":"uint8"},{"name":"v","type":"uint8","internalType":"uint8"},{"name":"r","type":"bytes32","internalType":"bytes32"},{"name":"s","type":"bytes32","internalType":"bytes32"}],"outputs":[{"name":"","type":"uint256","internalType":"uint256"}],"stateMutability":"nonpayable"},{"type":"function","name":"castVoteWithReason","inputs":[{"name":"proposalId","type":"uint256","internalType":"uint256"},{"name":"support","type":"uint8","internalType":"uint8"},{"name":"reason","type":"string","internalType":"string"}],"outputs":[{"name":"","type":"uint256","internalType":"uint256"}],"stateMutability":"nonpayable"},{"type":"function","name":"castVoteWithReasonAndParams","inputs":[{"name":"proposalId","type":"uint256","internalType":"uint256"},{"name":"support","type":"uint8","internalType":"uint8"},{"name":"reason","type":"string","internalType":"string"},{"name":"params","type":"bytes","internalType":"bytes"}],"outputs":[{"name":"","type":"uint256","internalType":"uint256"}],"stateMutability":"nonpayable"},{"type":"function","name":"castVoteWithReasonAndParamsBySig","inputs":[{"name":"proposalId","type":"uint256","internalType":"uint256"},{"name":"support","type":"uint8","internalType":"uint8"},{"name":"reason","type":"string","internalType":"string"},{"name":"params","type":"bytes","internalType":"bytes"},{"name":"v","type":"uint8","internalType":"uint8"},{"name":"r","type":"bytes32","internalType":"bytes32"},{"name":"s","type":"bytes32","internalType":"bytes32"}],"outputs":[{"name":"","type":"uint256","internalType":"uint256"}],"stateMutability":"nonpayable"},{"type":"function","name":"execute","inputs":[{"name":"targets","type":"address[]","internalType":"address[]"},{"name":"values","type":"uint256[]","internalType":"uint256[]"},{"name":"calldatas","type":"bytes[]","internalType":"bytes[]"},{"name":"descriptionHash","type":"bytes32","internalType":"bytes32"}],"outputs":[{"name":"","type":"uint256","internalType":"uint256"}],"stateMutability":"payable"},{"type":"function","name":"getVotes","inputs":[{"name":"account","type":"address","internalType":"address"},{"name":"blockNumber","type":"uint256","internalType":"uint256"}],"outputs":[{"name":"","type":"uint256","internalType":"uint256"}],"stateMutability":"view"},{"type":"function","name":"getVotesWithParams","inputs":[{"name":"account","type":"address","internalType":"address"},{"name":"blockNumber","type":"uint256","internalType":"uint256"},{"name":"params","type":"bytes","internalType":"bytes"}],"outputs":[{"name":"","type":"uint256","internalType":"uint256"}],"stateMutability":"view"},{"type":"function","name":"hasVoted","inputs":[{"name":"proposalId","type":"uint256","internalType":"uint256"},{"name":"account","type":"address","internalType":"address"}],"outputs":[{"name":"","type":"bool","internalType":"bool"}],"stateMutability":"view"},{"type":"function","name":"hashProposal","inputs":[{"name":"targets","type":"address[]","internalType":"address[]"},{"name":"values","type":"uint256[]","internalType":"uint256[]"},{"name":"calldatas","type":"bytes[]","internalType":"bytes[]"},{"name":"descriptionHash","type":"bytes32","internalType":"bytes32"}],"outputs":[{"name":"","type":"uint256","internalType":"uint256"}],"stateMutability":"pure"},{"type":"function","name":"name","inputs":[],"outputs":[{"name":"","type":"string","internalType":"string"}],"stateMutability":"view"},{"type":"function","name":"onERC1155BatchReceived","inputs":[{"name":"","type":"address","internalType":"address"},{"name":"","type":"address","internalType":"address"},{"name":"","type":"uint256[]","internalType":"uint256[]"},{"name":"","type":"uint256[]","internalType":"uint256[]"},{"name":"","type":"bytes","internalType":"bytes"}],"outputs":[{"name":"","type":"bytes4","internalType":"bytes4"}],"stateMutability":"nonpayable"},{"type":"function","name":"onERC1155Received","inputs":[{"name":"","type":"address","internalType":"address"},{"name":"","type":"address","internalType":"address"},{"name":"","type":"uint256","internalType":"uint256"},{"name":"","type":"uint256","internalType":"uint256"},{"name":"","type":"bytes","internalType":"bytes"}],"outputs":[{"name":"","type":"bytes4","internalType":"bytes4"}],"stateMutability":"nonpayable"},{"type":"function","name":"onERC721Received","inputs":[{"name":"","type":"address","internalType":"address"},{"name":"","type":"address","internalType":"address"},{"name":"","type":"uint256","internalType":"uint256"},{"name":"","type":"bytes","internalType":"bytes"}],"outputs":[{"name":"","type":"bytes4","internalType":"bytes4"}],"stateMutability":"nonpayable"},{"type":"function","name":"proposalDeadline","inputs":[{"name":"proposalId","type":"uint256","internalType":"uint256"}],"outputs":[{"name":"","type":"uint256","internalType":"uint256"}],"stateMutability":"view"},{"type":"function","name":"proposalEta","inputs":[{"name":"proposalId","type":"uint256","internalType":"uint256"}],"outputs":[{"name":"","type":"uint256","internalType":"uint256"}],"stateMutability":"view"},{"type":"function","name":"proposalSnapshot","inputs":[{"name":"proposalId","type":"uint256","internalType":"uint256"}],"outputs":[{"name":"","type":"uint256","internalType":"uint256"}],"stateMutability":"view"},{"type":"function","name":"proposalThreshold","inputs":[],"outputs":[{"name":"","type":"uint256","internalType":"uint256"}],"stateMutability":"view"},{"type":"function","name":"proposalVotes","inputs":[{"name":"proposalId","type":"uint256","internalType":"uint256"}],"outputs":[{"name":"againstVotes","type":"uint256","internalType":"uint256"},{"name":"forVotes","type":"uint256","internalType":"uint256"},{"name":"abstainVotes","type":"uint256","internalType":"uint256"}],"stateMutability":"view"},{"type":"function","name":"propose","inputs":[{"name":"targets","type":"address[]","internalType":"address[]"},{"name":"values","type":"uint256[]","internalType":"uint256[]"},{"name":"calldatas","type":"bytes[]","internalType":"bytes[]"},{"name":"description","type":"string","internalType":"string"}],"outputs":[{"name":"","type":"uint256","internalType":"uint256"}],"stateMutability":"nonpayable"},{"type":"function","name":"queue","inputs":[{"name":"targets","type":"address[]","internalType":"address[]"},{"name":"values","type":"uint256[]","internalType":"uint256[]"},{"name":"calldatas","type":"bytes[]","internalType":"bytes[]"},{"name":"descriptionHash","type":"bytes32","internalType":"bytes32"}],"outputs":[{"name":"","type":"uint256","internalType":"uint256"}],"stateMutability":"nonpayable"},{"type":"function","name":"quorum","inputs":[{"name":"blockNumber","type":"uint256","internalType":"uint256"}],"outputs":[{"name":"","type":"uint256","internalType":"uint256"}],"stateMutability":"view"},{"type":"function","name":"quorumDenominator","inputs":[],"outputs":[{"name":"","type":"uint256","internalType":"uint256"}],"stateMutability":"view"},{"type":"function","name":"quorumNumerator","inputs":[{"name":"blockNumber","type":"uint256","internalType":"uint256"}],"outputs":[{"name":"","type":"uint256","internalType":"uint256"}],"stateMutability":"view"},{"type":"function","name":"quorumNumerator","inputs":[],"outputs":[{"name":"","type":"uint256","internalType":"uint256"}],"stateMutability":"view"},{"type":"function","name":"relay","inputs":[{"name":"target","type":"address","internalType":"address"},{"name":"value","type":"uint256","internalType":"uint256"},{"name":"data","type":"bytes","internalType":"bytes"}],"outputs":[],"stateMutability":"payable"},{"type":"function","name":"setProposalThreshold","inputs":[{"name":"newProposalThreshold","type":"uint256","internalType":"uint256"}],"outputs":[],"stateMutability":"nonpayable"},{"type":"function","name":"setVotingDelay","inputs":[{"name":"newVotingDelay","type":"uint256","internalType":"uint256"}],"outputs":[],"stateMutability":"nonpayable"},{"type":"function","name":"setVotingPeriod","inputs":[{"name":"newVotingPeriod","type":"uint256","internalType":"uint256"}],"outputs":[],"stateMutability":"nonpayable"},{"type":"function","name":"state","inputs":[{"name":"proposalId","type":"uint256","internalType":"uint256"}],"outputs":[{"name":"","type":"uint8","internalType":"enum IGovernor.ProposalState"}],"stateMutability":"view"},{"type":"function","name":"supportsInterface","inputs":[{"name":"interfaceId","type":"bytes4","internalType":"bytes4"}],"outputs":[{"name":"","type":"bool","internalType":"bool"}],"stateMutability":"view"},{"type":"function","name":"timelock","inputs":[],"outputs":[{"name":"","type":"address","internalType":"address"}],"stateMutability":"view"},{"type":"function","name":"token","inputs":[],"outputs":[{"name":"","type":"address","internalType":"contract IVotes"}],"stateMutability":"view"},{"type":"function","name":"updateQuorumNumerator","inputs":[{"name":"newQuorumNumerator","type":"uint256","internalType":"uint256"}],"outputs":[],"stateMutability":"nonpayable"},{"type":"function","name":"updateTimelock","inputs":[{"name":"newTimelock","type":"address","internalType":"contract TimelockController"}],"outputs":[],"stateMutability":"nonpayable"},{"type":"function","name":"version","inputs":[],"outputs":[{"name":"","type":"string","internalType":"string"}],"stateMutability":"view"},{"type":"function","name":"votingDelay","inputs":[],"outputs":[{"name":"","type":"uint256","internalType":"uint256"}],"stateMutability":"view"},{"type":"function","name":"votingPeriod","inputs":[],"outputs":[{"name":"","type":"uint256","internalType":"uint256"}],"stateMutability":"view"},{"type":"event","name":"ProposalCanceled","inputs":[{"name":"proposalId","type":"uint256","indexed":false,"internalType":"uint256"}],"anonymous":false},{"type":"event","name":"ProposalCreated","inputs":[{"name":"proposalId","type":"uint256","indexed":false,"internalType":"uint256"},{"name":"proposer","type":"address","indexed":false,"internalType":"address"},{"name":"targets","type":"address[]","indexed":false,"internalType":"address[]"},{"name":"values","type":"uint256[]","indexed":false,"internalType":"uint256[]"},{"name":"signatures","type":"string[]","indexed":false,"internalType":"string[]"},{"name":"calldatas","type":"bytes[]","indexed":false,"internalType":"bytes[]"},{"name":"startBlock","type":"uint256","indexed":false,"internalType":"uint256"},{"name":"endBlock","type":"uint256","indexed":false,"internalType":"uint256"},{"name":"description","type":"string","indexed":false,"internalType":"string"}],"anonymous":false},{"type":"event","name":"ProposalExecuted","inputs":[{"name":"proposalId","type":"uint256","indexed":false,"internalType":"uint256"}],"anonymous":false},{"type":"event","name":"ProposalQueued","inputs":[{"name":"proposalId","type":"uint256","indexed":false,"internalType":"uint256"},{"name":"eta","type":"uint256","indexed":false,"internalType":"uint256"}],"anonymous":false},{"type":"event","name":"ProposalThresholdSet","inputs":[{"name":"oldProposalThreshold","type":"uint256","indexed":false,"internalType":"uint256"},{"name":"newProposalThreshold","type":"uint256","indexed":false,"internalType":"uint256"}],"anonymous":false},{"type":"event","name":"QuorumNumeratorUpdated","inputs":[{"name":"oldQuorumNumerator","type":"uint256","indexed":false,"internalType":"uint256"},{"name":"newQuorumNumerator","type":"uint256","indexed":false,"internalType":"uint256"}],"anonymous":false},{"type":"event","name":"TimelockChange","inputs":[{"name":"oldTimelock","type":"address","indexed":false,"internalType":"address"},{"name":"newTimelock","type":"address","indexed":false,"internalType":"address"}],"anonymous":false},{"type":"event","name":"VoteCast","inputs":[{"name":"voter","type":"address","indexed":true,"internalType":"address"},{"name":"proposalId","type":"uint256","indexed":false,"internalType":"uint256"},{"name":"support","type":"uint8","indexed":false,"internalType":"uint8"},{"name":"weight","type":"uint256","indexed":false,"internalType":"uint256"},{"name":"reason","type":"string","indexed":false,"internalType":"string"}],"anonymous":false},{"type":"event","name":"VoteCastWithParams","inputs":[{"name":"voter","type":"address","indexed":true,"internalType":"address"},{"name":"proposalId","type":"uint256","indexed":false,"internalType":"uint256"},{"name":"support","type":"uint8","indexed":false,"internalType":"uint8"},{"name":"weight","type":"uint256","indexed":false,"internalType":"uint256"},{"name":"reason","type":"string","indexed":false,"internalType":"string"},{"name":"params","type":"bytes","indexed":false,"internalType":"bytes"}],"anonymous":false},{"type":"event","name":"VotingDelaySet","inputs":[{"name":"oldVotingDelay","type":"uint256","indexed":false,"internalType":"uint256"},{"name":"newVotingDelay","type":"uint256","indexed":false,"internalType":"uint256"}],"anonymous":false},{"type":"event","name":"VotingPeriodSet","inputs":[{"name":"oldVotingPeriod","type":"uint256","indexed":false,"internalType":"uint256"},{"name":"newVotingPeriod","type":"uint256","indexed":false,"internalType":"uint256"}],"anonymous":false},{"type":"error","name":"Empty","inputs":[]}],"bytecode":{"object":"0x610160604052348015610010575f5ffd5b50604051617a34380380617a3483398181016040528101906100329190610be5565b80600483600161c4e05f6040518060400160405280600a81526020017f4d79476f7665726e6f7200000000000000000000000000000000000000000000815250806100816101cb60201b60201c565b5f828051906020012090505f828051906020012090505f7f8b73c3c69bb8fe3d512ecc4cf759cc79239f7b179b0ffacaa9a75d522b39400f90508260e081815250508161010081815250504660a081815250506100e581848461020860201b60201c565b608081815250503073ffffffffffffffffffffffffffffffffffffffff1660c08173ffffffffffffffffffffffffffffffffffffffff16815250508061012081815250505050505050805f908161013c9190610e60565b505061014d8361024160201b60201c565b61015c8261028660201b60201c565b61016b8161030d60201b60201c565b5050508073ffffffffffffffffffffffffffffffffffffffff166101408173ffffffffffffffffffffffffffffffffffffffff1681525050506101b38161035260201b60201c565b506101c38161050b60201b60201c565b50505061133a565b60606040518060400160405280600181526020017f3100000000000000000000000000000000000000000000000000000000000000815250905090565b5f8383834630604051602001610222959493929190610f65565b6040516020818303038152906040528051906020012090509392505050565b7fc565b045403dc03c2eea82b81a0465edad9e2e7fc4d97e11421c209da93d7a9360045482604051610274929190610fb6565b60405180910390a18060048190555050565b5f81116102c8576040517f08c379a00000000000000000000000000000000000000000000000000000000081526004016102bf9061105d565b60405180910390fd5b7f7e3f7f0708a84de9203036abaa450dccc85ad5ff52f78c170f3edb55cf5e8828600554826040516102fb929190610fb6565b60405180910390a18060058190555050565b7fccb45da8d5717e6c4544694297c4ba5cf151d455c9bb0ed4fc7a38411bc0546160065482604051610340929190610fb6565b60405180910390a18060068190555050565b6103606105a860201b60201c565b8111156103a2576040517f08c379a000000000000000000000000000000000000000000000000000000000815260040161039990611111565b60405180910390fd5b5f6103b16105b060201b60201c565b90505f81141580156103c957505f60095f0180549050145b156104b85760095f0160405180604001604052805f63ffffffff1681526020016103f8846105fb60201b60201c565b7bffffffffffffffffffffffffffffffffffffffffffffffffffffffff16815250908060018154018082558091505060019003905f5260205f20015f909190919091505f820151815f015f6101000a81548163ffffffff021916908363ffffffff1602179055506020820151815f0160046101000a8154817bffffffffffffffffffffffffffffffffffffffffffffffffffffffff02191690837bffffffffffffffffffffffffffffffffffffffffffffffffffffffff16021790555050505b6104cc82600961066560201b90919060201c565b50507f0553476bf02ef2726e8ce5ced78d63e26e602e4a2257b1f559418e24b463399781836040516104ff929190610fb6565b60405180910390a15050565b7f08f74ea46ef7894f65eabfb5e6e695de773a000b47c529ab559178069b226401600a5f9054906101000a900473ffffffffffffffffffffffffffffffffffffffff168260405161055d92919061112f565b60405180910390a180600a5f6101000a81548173ffffffffffffffffffffffffffffffffffffffff021916908373ffffffffffffffffffffffffffffffffffffffff16021790555050565b5f6064905090565b5f5f60095f0180549050146105f2576105cf60096106e360201b60201c565b7bffffffffffffffffffffffffffffffffffffffffffffffffffffffff166105f6565b6008545b905090565b5f7bffffffffffffffffffffffffffffffffffffffffffffffffffffffff801682111561065d576040517f08c379a0000000000000000000000000000000000000000000000000000000008152600401610654906111c6565b60405180910390fd5b819050919050565b5f5f610696845f0161067c4361074d60201b60201c565b61068b866105fb60201b60201c565b61079f60201b60201c565b817bffffffffffffffffffffffffffffffffffffffffffffffffffffffff169150807bffffffffffffffffffffffffffffffffffffffffffffffffffffffff169050915091509250929050565b5f5f825f018054905090505f811461074357610713835f016001836107089190611211565b610b1860201b60201c565b5f0160049054906101000a90047bffffffffffffffffffffffffffffffffffffffffffffffffffffffff16610745565b5f5b915050919050565b5f63ffffffff8016821115610797576040517f08c379a000000000000000000000000000000000000000000000000000000000815260040161078e906112b4565b60405180910390fd5b819050919050565b5f5f5f858054905090505f811115610a30575f6107ce876001846107c39190611211565b610b1860201b60201c565b6040518060400160405290815f82015f9054906101000a900463ffffffff1663ffffffff1663ffffffff1681526020015f820160049054906101000a90047bffffffffffffffffffffffffffffffffffffffffffffffffffffffff167bffffffffffffffffffffffffffffffffffffffffffffffffffffffff167bffffffffffffffffffffffffffffffffffffffffffffffffffffffff168152505090508563ffffffff16815f015163ffffffff1611156108be576040517f08c379a00000000000000000000000000000000000000000000000000000000081526004016108b59061131c565b60405180910390fd5b8563ffffffff16815f015163ffffffff160361094657846108f1886001856108e69190611211565b610b1860201b60201c565b5f0160046101000a8154817bffffffffffffffffffffffffffffffffffffffffffffffffffffffff02191690837bffffffffffffffffffffffffffffffffffffffffffffffffffffffff160217905550610a1f565b8660405180604001604052808863ffffffff168152602001877bffffffffffffffffffffffffffffffffffffffffffffffffffffffff16815250908060018154018082558091505060019003905f5260205f20015f909190919091505f820151815f015f6101000a81548163ffffffff021916908363ffffffff1602179055506020820151815f0160046101000a8154817bffffffffffffffffffffffffffffffffffffffffffffffffffffffff02191690837bffffffffffffffffffffffffffffffffffffffffffffffffffffffff16021790555050505b806020015185935093505050610b10565b8560405180604001604052808763ffffffff168152602001867bffffffffffffffffffffffffffffffffffffffffffffffffffffffff16815250908060018154018082558091505060019003905f5260205f20015f909190919091505f820151815f015f6101000a81548163ffffffff021916908363ffffffff1602179055506020820151815f0160046101000a8154817bffffffffffffffffffffffffffffffffffffffffffffffffffffffff02191690837bffffffffffffffffffffffffffffffffffffffffffffffffffffffff16021790555050505f8492509250505b935093915050565b5f825f528160205f2001905092915050565b5f5ffd5b5f73ffffffffffffffffffffffffffffffffffffffff82169050919050565b5f610b5782610b2e565b9050919050565b5f610b6882610b4d565b9050919050565b610b7881610b5e565b8114610b82575f5ffd5b50565b5f81519050610b9381610b6f565b92915050565b5f610ba382610b2e565b9050919050565b5f610bb482610b99565b9050919050565b610bc481610baa565b8114610bce575f5ffd5b50565b5f81519050610bdf81610bbb565b92915050565b5f5f60408385031215610bfb57610bfa610b2a565b5b5f610c0885828601610b85565b9250506020610c1985828601610bd1565b9150509250929050565b5f81519050919050565b7f4e487b71000000000000000000000000000000000000000000000000000000005f52604160045260245ffd5b7f4e487b71000000000000000000000000000000000000000000000000000000005f52602260045260245ffd5b5f6002820490506001821680610c9e57607f821691505b602082108103610cb157610cb0610c5a565b5b50919050565b5f819050815f5260205f209050919050565b5f6020601f8301049050919050565b5f82821b905092915050565b5f60088302610d137fffffffffffffffffffffffffffffffffffffffffffffffffffffffffffffffff82610cd8565b610d1d8683610cd8565b95508019841693508086168417925050509392505050565b5f819050919050565b5f819050919050565b5f610d61610d5c610d5784610d35565b610d3e565b610d35565b9050919050565b5f819050919050565b610d7a83610d47565b610d8e610d8682610d68565b848454610ce4565b825550505050565b5f5f905090565b610da5610d96565b610db0818484610d71565b505050565b5b81811015610dd357610dc85f82610d9d565b600181019050610db6565b5050565b601f821115610e1857610de981610cb7565b610df284610cc9565b81016020851015610e01578190505b610e15610e0d85610cc9565b830182610db5565b50505b505050565b5f82821c905092915050565b5f610e385f1984600802610e1d565b1980831691505092915050565b5f610e508383610e29565b9150826002028217905092915050565b610e6982610c23565b67ffffffffffffffff811115610e8257610e81610c2d565b5b610e8c8254610c87565b610e97828285610dd7565b5f60209050601f831160018114610ec8575f8415610eb6578287015190505b610ec08582610e45565b865550610f27565b601f198416610ed686610cb7565b5f5b82811015610efd57848901518255600182019150602085019450602081019050610ed8565b86831015610f1a5784890151610f16601f891682610e29565b8355505b6001600288020188555050505b505050505050565b5f819050919050565b610f4181610f2f565b82525050565b610f5081610d35565b82525050565b610f5f81610b4d565b82525050565b5f60a082019050610f785f830188610f38565b610f856020830187610f38565b610f926040830186610f38565b610f9f6060830185610f47565b610fac6080830184610f56565b9695505050505050565b5f604082019050610fc95f830185610f47565b610fd66020830184610f47565b9392505050565b5f82825260208201905092915050565b7f476f7665726e6f7253657474696e67733a20766f74696e6720706572696f64205f8201527f746f6f206c6f7700000000000000000000000000000000000000000000000000602082015250565b5f611047602783610fdd565b915061105282610fed565b604082019050919050565b5f6020820190508181035f8301526110748161103b565b9050919050565b7f476f7665726e6f72566f74657351756f72756d4672616374696f6e3a2071756f5f8201527f72756d4e756d657261746f72206f7665722071756f72756d44656e6f6d696e6160208201527f746f720000000000000000000000000000000000000000000000000000000000604082015250565b5f6110fb604383610fdd565b91506111068261107b565b606082019050919050565b5f6020820190508181035f830152611128816110ef565b9050919050565b5f6040820190506111425f830185610f56565b61114f6020830184610f56565b9392505050565b7f53616665436173743a2076616c756520646f65736e27742066697420696e20325f8201527f3234206269747300000000000000000000000000000000000000000000000000602082015250565b5f6111b0602783610fdd565b91506111bb82611156565b604082019050919050565b5f6020820190508181035f8301526111dd816111a4565b9050919050565b7f4e487b71000000000000000000000000000000000000000000000000000000005f52601160045260245ffd5b5f61121b82610d35565b915061122683610d35565b925082820390508181111561123e5761123d6111e4565b5b92915050565b7f53616665436173743a2076616c756520646f65736e27742066697420696e20335f8201527f3220626974730000000000000000000000000000000000000000000000000000602082015250565b5f61129e602683610fdd565b91506112a982611244565b604082019050919050565b5f6020820190508181035f8301526112cb81611292565b9050919050565b7f436865636b706f696e743a20696e76616c6964206b65790000000000000000005f82015250565b5f611306601783610fdd565b9150611311826112d2565b602082019050919050565b5f6020820190508181035f830152611333816112fa565b9050919050565b60805160a05160c05160e05161010051610120516101405161669b6113995f395f8181611dd101528181612a8f0152612d5201525f61301401525f61305601525f61303501525f612f6a01525f612fc001525f612fe9015261669b5ff3fe608060405260043610610249575f3560e01c80637b3c71d311610138578063c28bc2fa116100b5578063ea0217cf11610079578063ea0217cf1461099a578063eb9019d4146109c2578063ece40cc1146109fe578063f23a6e6114610a26578063f8ce560a14610a62578063fc0c546a14610a9e5761028e565b8063c28bc2fa146108c4578063c59057e4146108e0578063d33219b41461091c578063dd4e2ba514610946578063deaaa7cc146109705761028e565b8063a890c910116100fc578063a890c910146107be578063ab58fb8e146107e6578063b58131b014610822578063bc197c811461084c578063c01f9e37146108885761028e565b80637b3c71d3146106b65780637d5e81e2146106f257806397c3d3341461072e5780639a802a6d14610758578063a7713a70146107945761028e565b80633932abb1116101c657806354fd4d501161018a57806354fd4d50146105b057806356781388146105da5780635f398a141461061657806360c4247f1461065257806370b0f6601461068e5761028e565b80633932abb1146104945780633bccf4fd146104be5780633e4f49e6146104fa5780634385963214610536578063544ffc9c146105725761028e565b8063150b7a021161020d578063150b7a0214610386578063160cbed7146103c25780632656227d146103fe5780632d63f6931461042e5780632fe3e2611461046a5761028e565b806301ffc9a71461029257806302a251a3146102ce57806303420181146102f857806306f3f9e61461033457806306fdde031461035c5761028e565b3661028e573073ffffffffffffffffffffffffffffffffffffffff1661026d610ac8565b73ffffffffffffffffffffffffffffffffffffffff161461028c575f5ffd5b005b5f5ffd5b34801561029d575f5ffd5b506102b860048036038101906102b39190613f45565b610ad6565b6040516102c59190613f8a565b60405180910390f35b3480156102d9575f5ffd5b506102e2610ae7565b6040516102ef9190613fbb565b60405180910390f35b348015610303575f5ffd5b5061031e60048036038101906103199190614200565b610af5565b60405161032b9190613fbb565b60405180910390f35b34801561033f575f5ffd5b5061035a600480360381019061035591906142d9565b610bd8565b005b348015610367575f5ffd5b50610370610cce565b60405161037d9190614364565b60405180910390f35b348015610391575f5ffd5b506103ac60048036038101906103a791906143de565b610d5d565b6040516103b9919061446d565b60405180910390f35b3480156103cd575f5ffd5b506103e860048036038101906103e391906146e4565b610d70565b6040516103f59190613fbb565b60405180910390f35b610418600480360381019061041391906146e4565b611018565b6040516104259190613fbb565b60405180910390f35b348015610439575f5ffd5b50610454600480360381019061044f91906142d9565b611160565b6040516104619190613fbb565b60405180910390f35b348015610475575f5ffd5b5061047e6111c8565b60405161048b91906147ab565b60405180910390f35b34801561049f575f5ffd5b506104a86111ec565b6040516104b59190613fbb565b60405180910390f35b3480156104c9575f5ffd5b506104e460048036038101906104df91906147c4565b6111fa565b6040516104f19190613fbb565b60405180910390f35b348015610505575f5ffd5b50610520600480360381019061051b91906142d9565b611282565b60405161052d91906148ae565b60405180910390f35b348015610541575f5ffd5b5061055c600480360381019061055791906148c7565b611293565b6040516105699190613f8a565b60405180910390f35b34801561057d575f5ffd5b50610598600480360381019061059391906142d9565b6112f8565b6040516105a793929190614905565b60405180910390f35b3480156105bb575f5ffd5b506105c461132b565b6040516105d19190614364565b60405180910390f35b3480156105e5575f5ffd5b5061060060048036038101906105fb919061493a565b611368565b60405161060d9190613fbb565b60405180910390f35b348015610621575f5ffd5b5061063c60048036038101906106379190614978565b611397565b6040516106499190613fbb565b60405180910390f35b34801561065d575f5ffd5b50610678600480360381019061067391906142d9565b6113ff565b6040516106859190613fbb565b60405180910390f35b348015610699575f5ffd5b506106b460048036038101906106af91906142d9565b611540565b005b3480156106c1575f5ffd5b506106dc60048036038101906106d79190614a18565b611636565b6040516106e99190613fbb565b60405180910390f35b3480156106fd575f5ffd5b5061071860048036038101906107139190614b27565b61169c565b6040516107259190613fbb565b60405180910390f35b348015610739575f5ffd5b506107426116b3565b60405161074f9190613fbb565b60405180910390f35b348015610763575f5ffd5b5061077e60048036038101906107799190614bfb565b6116bb565b60405161078b9190613fbb565b60405180910390f35b34801561079f575f5ffd5b506107a86116d0565b6040516107b59190613fbb565b60405180910390f35b3480156107c9575f5ffd5b506107e460048036038101906107df9190614cb3565b611715565b005b3480156107f1575f5ffd5b5061080c600480360381019061080791906142d9565b61180b565b6040516108199190613fbb565b60405180910390f35b34801561082d575f5ffd5b506108366118d1565b6040516108439190613fbb565b60405180910390f35b348015610857575f5ffd5b50610872600480360381019061086d9190614cde565b6118df565b60405161087f919061446d565b60405180910390f35b348015610893575f5ffd5b506108ae60048036038101906108a991906142d9565b6118f3565b6040516108bb9190613fbb565b60405180910390f35b6108de60048036038101906108d99190614dfe565b61195c565b005b3480156108eb575f5ffd5b50610906600480360381019061090191906146e4565b611ae0565b6040516109139190613fbb565b60405180910390f35b348015610927575f5ffd5b50610930611b1a565b60405161093d9190614e7e565b60405180910390f35b348015610951575f5ffd5b5061095a611b42565b6040516109679190614364565b60405180910390f35b34801561097b575f5ffd5b50610984611b7f565b60405161099191906147ab565b60405180910390f35b3480156109a5575f5ffd5b506109c060048036038101906109bb91906142d9565b611ba3565b005b3480156109cd575f5ffd5b506109e860048036038101906109e39190614e97565b611c99565b6040516109f59190613fbb565b60405180910390f35b348015610a09575f5ffd5b50610a246004803603810190610a1f91906142d9565b611cb4565b005b348015610a31575f5ffd5b50610a4c6004803603810190610a479190614ed5565b611daa565b604051610a59919061446d565b60405180910390f35b348015610a6d575f5ffd5b50610a886004803603810190610a8391906142d9565b611dbe565b604051610a959190613fbb565b60405180910390f35b348015610aa9575f5ffd5b50610ab2611dcf565b604051610abf9190614fc3565b60405180910390f35b5f610ad1611df3565b905090565b5f610ae082611e1b565b9050919050565b5f610af0611e94565b905090565b5f5f610b77610b6f7fb3b3f3b703cd84ce352197dcff232b1b5d3cfb2025ce47cf04742d0651f1af888c8c8c8c604051610b3092919061500a565b60405180910390208b80519060200120604051602001610b54959493929190615031565b60405160208183030381529060405280519060200120611e9d565b868686611eb6565b9050610bc98a828b8b8b8080601f0160208091040260200160405190810160405280939291908181526020018383808284375f81840152601f19601f820116905080830192505050505050508a611edf565b91505098975050505050505050565b610be0610ac8565b73ffffffffffffffffffffffffffffffffffffffff16610bfe612093565b73ffffffffffffffffffffffffffffffffffffffff1614610c54576040517f08c379a0000000000000000000000000000000000000000000000000000000008152600401610c4b906150cc565b60405180910390fd5b3073ffffffffffffffffffffffffffffffffffffffff16610c73610ac8565b73ffffffffffffffffffffffffffffffffffffffff1614610cc2575f610c9761209a565b604051610ca592919061500a565b604051809103902090505b80610cbb60026120a6565b03610cb057505b610ccb81612177565b50565b60605f8054610cdc90615117565b80601f0160208091040260200160405190810160405280929190818152602001828054610d0890615117565b8015610d535780601f10610d2a57610100808354040283529160200191610d53565b820191905f5260205f20905b815481529060010190602001808311610d3657829003601f168201915b5050505050905090565b5f63150b7a0260e01b9050949350505050565b5f5f610d7e86868686611ae0565b905060046007811115610d9457610d9361483b565b5b610d9d82611282565b6007811115610daf57610dae61483b565b5b14610def576040517f08c379a0000000000000000000000000000000000000000000000000000000008152600401610de6906151b7565b60405180910390fd5b5f600a5f9054906101000a900473ffffffffffffffffffffffffffffffffffffffff1673ffffffffffffffffffffffffffffffffffffffff1663f27a0c926040518163ffffffff1660e01b8152600401602060405180830381865afa158015610e5a573d5f5f3e3d5ffd5b505050506040513d601f19601f82011682018060405250810190610e7e91906151e9565b9050600a5f9054906101000a900473ffffffffffffffffffffffffffffffffffffffff1673ffffffffffffffffffffffffffffffffffffffff1663b1c5f4278888885f896040518663ffffffff1660e01b8152600401610ee29594939291906154d3565b602060405180830381865afa158015610efd573d5f5f3e3d5ffd5b505050506040513d601f19601f82011682018060405250810190610f21919061554d565b600b5f8481526020019081526020015f2081905550600a5f9054906101000a900473ffffffffffffffffffffffffffffffffffffffff1673ffffffffffffffffffffffffffffffffffffffff16638f2a0bb08888885f89876040518763ffffffff1660e01b8152600401610f9a96959493929190615578565b5f604051808303815f87803b158015610fb1575f5ffd5b505af1158015610fc3573d5f5f3e3d5ffd5b505050507f9a2e42fd6722813d69113e7d0079d3d940171428df7373df9c7f7617cfda2892828242610ff59190615619565b60405161100392919061564c565b60405180910390a18192505050949350505050565b5f5f61102686868686611ae0565b90505f61103282611282565b9050600460078111156110485761104761483b565b5b81600781111561105b5761105a61483b565b5b148061108b5750600560078111156110765761107561483b565b5b8160078111156110895761108861483b565b5b145b6110ca576040517f08c379a00000000000000000000000000000000000000000000000000000000081526004016110c1906151b7565b60405180910390fd5b6001805f8481526020019081526020015f206002015f6101000a81548160ff0219169083151502179055507f712ae1383f79ac853f8d882153778e0260ef8f03b504e2866e0593e04d2b291f826040516111249190613fbb565b60405180910390a1611139828888888861231e565b61114682888888886123fd565b6111538288888888612411565b8192505050949350505050565b5f6111b760015f8481526020019081526020015f205f016040518060200160405290815f82015f9054906101000a900467ffffffffffffffff1667ffffffffffffffff1667ffffffffffffffff168152505061246c565b67ffffffffffffffff169050919050565b7fb3b3f3b703cd84ce352197dcff232b1b5d3cfb2025ce47cf04742d0651f1af8881565b5f6111f5612478565b905090565b5f5f61125a6112527f150214d74d59b7d1e90c73fc22ef3d991dd0a76b046543d4d80ab92d2a50328f898960405160200161123793929190615673565b60405160208183030381529060405280519060200120611e9d565b868686611eb6565b905061127687828860405180602001604052805f815250612481565b91505095945050505050565b5f61128c826124a0565b9050919050565b5f60075f8481526020019081526020015f206003015f8373ffffffffffffffffffffffffffffffffffffffff1673ffffffffffffffffffffffffffffffffffffffff1681526020019081526020015f205f9054906101000a900460ff16905092915050565b5f5f5f5f60075f8681526020019081526020015f209050805f015481600101548260020154935093509350509193909250565b60606040518060400160405280600181526020017f3100000000000000000000000000000000000000000000000000000000000000815250905090565b5f5f611372612093565b905061138e84828560405180602001604052805f815250612481565b91505092915050565b5f5f6113a1612093565b90506113f387828888888080601f0160208091040260200160405190810160405280939291908181526020018383808284375f81840152601f19601f8201169050808301925050505050505087611edf565b91505095945050505050565b5f5f60095f018054905090505f810361141d5760085491505061153b565b5f60095f0160018361142f91906156a8565b815481106114405761143f6156db565b5b905f5260205f20016040518060400160405290815f82015f9054906101000a900463ffffffff1663ffffffff1663ffffffff1681526020015f820160049054906101000a90047bffffffffffffffffffffffffffffffffffffffffffffffffffffffff167bffffffffffffffffffffffffffffffffffffffffffffffffffffffff167bffffffffffffffffffffffffffffffffffffffffffffffffffffffff1681525050905083815f015163ffffffff16116115225780602001517bffffffffffffffffffffffffffffffffffffffffffffffffffffffff169250505061153b565b61153684600961266890919063ffffffff16565b925050505b919050565b611548610ac8565b73ffffffffffffffffffffffffffffffffffffffff16611566612093565b73ffffffffffffffffffffffffffffffffffffffff16146115bc576040517f08c379a00000000000000000000000000000000000000000000000000000000081526004016115b3906150cc565b60405180910390fd5b3073ffffffffffffffffffffffffffffffffffffffff166115db610ac8565b73ffffffffffffffffffffffffffffffffffffffff161461162a575f6115ff61209a565b60405161160d92919061500a565b604051809103902090505b8061162360026120a6565b0361161857505b6116338161274c565b50565b5f5f611640612093565b905061169186828787878080601f0160208091040260200160405190810160405280939291908181526020018383808284375f81840152601f19601f82011690508083019250505050505050612481565b915050949350505050565b5f6116a985858585612791565b9050949350505050565b5f6064905090565b5f6116c7848484612a8c565b90509392505050565b5f5f60095f01805490501461170c576116e96009612b30565b7bffffffffffffffffffffffffffffffffffffffffffffffffffffffff16611710565b6008545b905090565b61171d610ac8565b73ffffffffffffffffffffffffffffffffffffffff1661173b612093565b73ffffffffffffffffffffffffffffffffffffffff1614611791576040517f08c379a0000000000000000000000000000000000000000000000000000000008152600401611788906150cc565b60405180910390fd5b3073ffffffffffffffffffffffffffffffffffffffff166117b0610ac8565b73ffffffffffffffffffffffffffffffffffffffff16146117ff575f6117d461209a565b6040516117e292919061500a565b604051809103902090505b806117f860026120a6565b036117ed57505b61180881612b94565b50565b5f5f600a5f9054906101000a900473ffffffffffffffffffffffffffffffffffffffff1673ffffffffffffffffffffffffffffffffffffffff1663d45c4435600b5f8681526020019081526020015f20546040518263ffffffff1660e01b815260040161187891906147ab565b602060405180830381865afa158015611893573d5f5f3e3d5ffd5b505050506040513d601f19601f820116820180604052508101906118b791906151e9565b9050600181146118c757806118c9565b5f5b915050919050565b5f6118da612c31565b905090565b5f63bc197c8160e01b905095945050505050565b5f61194b60015f8481526020019081526020015f206001016040518060200160405290815f82015f9054906101000a900467ffffffffffffffff1667ffffffffffffffff1667ffffffffffffffff168152505061246c565b67ffffffffffffffff169050919050565b611964610ac8565b73ffffffffffffffffffffffffffffffffffffffff16611982612093565b73ffffffffffffffffffffffffffffffffffffffff16146119d8576040517f08c379a00000000000000000000000000000000000000000000000000000000081526004016119cf906150cc565b60405180910390fd5b3073ffffffffffffffffffffffffffffffffffffffff166119f7610ac8565b73ffffffffffffffffffffffffffffffffffffffff1614611a46575f611a1b61209a565b604051611a2992919061500a565b604051809103902090505b80611a3f60026120a6565b03611a3457505b5f5f8573ffffffffffffffffffffffffffffffffffffffff16858585604051611a7092919061500a565b5f6040518083038185875af1925050503d805f8114611aaa576040519150601f19603f3d011682016040523d82523d5f602084013e611aaf565b606091505b5091509150611ad7828260405180606001604052806028815260200161663e60289139612c3a565b50505050505050565b5f84848484604051602001611af89493929190615708565b604051602081830303815290604052805190602001205f1c9050949350505050565b5f600a5f9054906101000a900473ffffffffffffffffffffffffffffffffffffffff16905090565b60606040518060400160405280602081526020017f737570706f72743d627261766f2671756f72756d3d666f722c6162737461696e815250905090565b7f150214d74d59b7d1e90c73fc22ef3d991dd0a76b046543d4d80ab92d2a50328f81565b611bab610ac8565b73ffffffffffffffffffffffffffffffffffffffff16611bc9612093565b73ffffffffffffffffffffffffffffffffffffffff1614611c1f576040517f08c379a0000000000000000000000000000000000000000000000000000000008152600401611c16906150cc565b60405180910390fd5b3073ffffffffffffffffffffffffffffffffffffffff16611c3e610ac8565b73ffffffffffffffffffffffffffffffffffffffff1614611c8d575f611c6261209a565b604051611c7092919061500a565b604051809103902090505b80611c8660026120a6565b03611c7b57505b611c9681612c5c565b50565b5f611cac8383611ca7612ce3565b612a8c565b905092915050565b611cbc610ac8565b73ffffffffffffffffffffffffffffffffffffffff16611cda612093565b73ffffffffffffffffffffffffffffffffffffffff1614611d30576040517f08c379a0000000000000000000000000000000000000000000000000000000008152600401611d27906150cc565b60405180910390fd5b3073ffffffffffffffffffffffffffffffffffffffff16611d4f610ac8565b73ffffffffffffffffffffffffffffffffffffffff1614611d9e575f611d7361209a565b604051611d8192919061500a565b604051809103902090505b80611d9760026120a6565b03611d8c57505b611da781612cf9565b50565b5f63f23a6e6160e01b905095945050505050565b5f611dc882612d3e565b9050919050565b7f000000000000000000000000000000000000000000000000000000000000000081565b5f600a5f9054906101000a900473ffffffffffffffffffffffffffffffffffffffff16905090565b5f7f6e665ced000000000000000000000000000000000000000000000000000000007bffffffffffffffffffffffffffffffffffffffffffffffffffffffff1916827bffffffffffffffffffffffffffffffffffffffffffffffffffffffff19161480611e8d5750611e8c82612e03565b5b9050919050565b5f600554905090565b5f611eaf611ea9612f67565b83613080565b9050919050565b5f5f5f611ec5878787876130b2565b91509150611ed28161318a565b8192505050949350505050565b5f5f60015f8881526020019081526020015f20905060016007811115611f0857611f0761483b565b5b611f1188611282565b6007811115611f2357611f2261483b565b5b14611f63576040517f08c379a0000000000000000000000000000000000000000000000000000000008152600401611f5a906157d0565b60405180910390fd5b5f611fbe87611fae845f016040518060200160405290815f82015f9054906101000a900467ffffffffffffffff1667ffffffffffffffff1667ffffffffffffffff168152505061246c565b67ffffffffffffffff1686612a8c565b9050611fcd88888884886132ef565b5f84510361202e578673ffffffffffffffffffffffffffffffffffffffff167fb8e138887d0aa13bab447e82de9d5c1777041ecd21ca36ba824ff1e6c07ddda48988848960405161202194939291906157ee565b60405180910390a2612085565b8673ffffffffffffffffffffffffffffffffffffffff167fe2babfbac5889a709b63bb7f598b324e08bc5a4fb9ec647fb3cbc9ec07eb8712898884898960405161207c959493929190615880565b60405180910390a25b809250505095945050505050565b5f33905090565b365f5f36915091509091565b5f6120b0826134e5565b156120e7576040517f3db2a12a00000000000000000000000000000000000000000000000000000000815260040160405180910390fd5b5f825f015f9054906101000a9004600f0b9050826001015f82600f0b600f0b81526020019081526020015f20549150826001015f82600f0b600f0b81526020019081526020015f205f905560018101835f015f6101000a8154816fffffffffffffffffffffffffffffffff0219169083600f0b6fffffffffffffffffffffffffffffffff16021790555050919050565b61217f6116b3565b8111156121c1576040517f08c379a00000000000000000000000000000000000000000000000000000000081526004016121b890615975565b60405180910390fd5b5f6121ca6116d0565b90505f81141580156121e257505f60095f0180549050145b156122cb5760095f0160405180604001604052805f63ffffffff16815260200161220b84613516565b7bffffffffffffffffffffffffffffffffffffffffffffffffffffffff16815250908060018154018082558091505060019003905f5260205f20015f909190919091505f820151815f015f6101000a81548163ffffffff021916908363ffffffff1602179055506020820151815f0160046101000a8154817bffffffffffffffffffffffffffffffffffffffffffffffffffffffff02191690837bffffffffffffffffffffffffffffffffffffffffffffffffffffffff16021790555050505b6122df82600961358090919063ffffffff16565b50507f0553476bf02ef2726e8ce5ced78d63e26e602e4a2257b1f559418e24b4633997818360405161231292919061564c565b60405180910390a15050565b3073ffffffffffffffffffffffffffffffffffffffff1661233d610ac8565b73ffffffffffffffffffffffffffffffffffffffff16146123f6575f5f90505b84518110156123f4573073ffffffffffffffffffffffffffffffffffffffff168582815181106123905761238f6156db565b5b602002602001015173ffffffffffffffffffffffffffffffffffffffff16036123e9576123e88382815181106123c9576123c86156db565b5b60200260200101518051906020012060026135ec90919063ffffffff16565b5b80600101905061235d565b505b5050505050565b61240a8585858585613663565b5050505050565b3073ffffffffffffffffffffffffffffffffffffffff16612430610ac8565b73ffffffffffffffffffffffffffffffffffffffff16146124655761245560026134e5565b6124645761246360026136fb565b5b5b5050505050565b5f815f01519050919050565b5f600454905090565b5f61249685858585612491612ce3565b611edf565b9050949350505050565b5f5f6124ab83613777565b9050600460078111156124c1576124c061483b565b5b8160078111156124d4576124d361483b565b5b146124e25780915050612663565b5f600b5f8581526020019081526020015f205490505f5f1b810361250a578192505050612663565b600a5f9054906101000a900473ffffffffffffffffffffffffffffffffffffffff1673ffffffffffffffffffffffffffffffffffffffff16632ab0f529826040518263ffffffff1660e01b815260040161256491906147ab565b602060405180830381865afa15801561257f573d5f5f3e3d5ffd5b505050506040513d601f19601f820116820180604052508101906125a391906159bd565b156125b357600792505050612663565b600a5f9054906101000a900473ffffffffffffffffffffffffffffffffffffffff1673ffffffffffffffffffffffffffffffffffffffff1663584b153e826040518263ffffffff1660e01b815260040161260d91906147ab565b602060405180830381865afa158015612628573d5f5f3e3d5ffd5b505050506040513d601f19601f8201168201806040525081019061264c91906159bd565b1561265c57600592505050612663565b6002925050505b919050565b5f4382106126ab576040517f08c379a00000000000000000000000000000000000000000000000000000000081526004016126a290615a32565b60405180910390fd5b5f6126b583613883565b90505f845f018054905090505f6126d0865f01845f856138d5565b90505f8114612721576126f1865f016001836126ec91906156a8565b613944565b5f0160049054906101000a90047bffffffffffffffffffffffffffffffffffffffffffffffffffffffff16612723565b5f5b7bffffffffffffffffffffffffffffffffffffffffffffffffffffffff16935050505092915050565b7fc565b045403dc03c2eea82b81a0465edad9e2e7fc4d97e11421c209da93d7a936004548260405161277f92919061564c565b60405180910390a18060048190555050565b5f61279a6118d1565b6127b76127a5612093565b6001436127b291906156a8565b611c99565b10156127f8576040517f08c379a00000000000000000000000000000000000000000000000000000000081526004016127ef90615ac0565b60405180910390fd5b5f61280c8686868680519060200120611ae0565b90508451865114612852576040517f08c379a000000000000000000000000000000000000000000000000000000000815260040161284990615b4e565b60405180910390fd5b8351865114612896576040517f08c379a000000000000000000000000000000000000000000000000000000000815260040161288d90615b4e565b60405180910390fd5b5f8651116128d9576040517f08c379a00000000000000000000000000000000000000000000000000000000081526004016128d090615bb6565b60405180910390fd5b5f60015f8381526020019081526020015f209050612933815f016040518060200160405290815f82015f9054906101000a900467ffffffffffffffff1667ffffffffffffffff1667ffffffffffffffff1681525050613956565b612972576040517f08c379a000000000000000000000000000000000000000000000000000000000815260040161296990615c44565b60405180910390fd5b5f61298361297e6111ec565b61396e565b61298c4361396e565b6129969190615c75565b90505f6129a96129a4610ae7565b61396e565b826129b49190615c75565b90506129cb82845f016139c490919063ffffffff16565b6129e181846001016139c490919063ffffffff16565b7f7d84a6263ae0d98d3329bd7b46bb4e8d6f98cd35a7adb45c274c8b7fd5ebd5e084612a0b612093565b8b8b8d5167ffffffffffffffff811115612a2857612a276140a9565b5b604051908082528060200260200182016040528015612a5b57816020015b6060815260200190600190039081612a465790505b508c88888e604051612a7599989796959493929190615de3565b60405180910390a183945050505050949350505050565b5f7f000000000000000000000000000000000000000000000000000000000000000073ffffffffffffffffffffffffffffffffffffffff16633a46b1a885856040518363ffffffff1660e01b8152600401612ae8929190615e91565b602060405180830381865afa158015612b03573d5f5f3e3d5ffd5b505050506040513d601f19601f82011682018060405250810190612b2791906151e9565b90509392505050565b5f5f825f018054905090505f8114612b8a57612b5a835f01600183612b5591906156a8565b613944565b5f0160049054906101000a90047bffffffffffffffffffffffffffffffffffffffffffffffffffffffff16612b8c565b5f5b915050919050565b7f08f74ea46ef7894f65eabfb5e6e695de773a000b47c529ab559178069b226401600a5f9054906101000a900473ffffffffffffffffffffffffffffffffffffffff1682604051612be6929190615eb8565b60405180910390a180600a5f6101000a81548173ffffffffffffffffffffffffffffffffffffffff021916908373ffffffffffffffffffffffffffffffffffffffff16021790555050565b5f600654905090565b60608315612c4a57829050612c55565b612c5483836139f1565b5b9392505050565b5f8111612c9e576040517f08c379a0000000000000000000000000000000000000000000000000000000008152600401612c9590615f4f565b60405180910390fd5b7f7e3f7f0708a84de9203036abaa450dccc85ad5ff52f78c170f3edb55cf5e882860055482604051612cd192919061564c565b60405180910390a18060058190555050565b606060405180602001604052805f815250905090565b7fccb45da8d5717e6c4544694297c4ba5cf151d455c9bb0ed4fc7a38411bc0546160065482604051612d2c92919061564c565b60405180910390a18060068190555050565b5f612d476116b3565b612d50836113ff565b7f000000000000000000000000000000000000000000000000000000000000000073ffffffffffffffffffffffffffffffffffffffff16638e539e8c856040518263ffffffff1660e01b8152600401612da99190613fbb565b602060405180830381865afa158015612dc4573d5f5f3e3d5ffd5b505050506040513d601f19601f82011682018060405250810190612de891906151e9565b612df29190615f6d565b612dfc9190615fdb565b9050919050565b5f639a802a6d60e01b630342018160e01b635f398a1460e01b7f79dd796f000000000000000000000000000000000000000000000000000000001818187bffffffffffffffffffffffffffffffffffffffffffffffffffffffff1916827bffffffffffffffffffffffffffffffffffffffffffffffffffffffff19161480612ee857507f79dd796f000000000000000000000000000000000000000000000000000000007bffffffffffffffffffffffffffffffffffffffffffffffffffffffff1916827bffffffffffffffffffffffffffffffffffffffffffffffffffffffff1916145b80612f5057507f4e2312e0000000000000000000000000000000000000000000000000000000007bffffffffffffffffffffffffffffffffffffffffffffffffffffffff1916827bffffffffffffffffffffffffffffffffffffffffffffffffffffffff1916145b80612f605750612f5f82613a40565b5b9050919050565b5f7f000000000000000000000000000000000000000000000000000000000000000073ffffffffffffffffffffffffffffffffffffffff163073ffffffffffffffffffffffffffffffffffffffff16148015612fe257507f000000000000000000000000000000000000000000000000000000000000000046145b1561300f577f0000000000000000000000000000000000000000000000000000000000000000905061307d565b61307a7f00000000000000000000000000000000000000000000000000000000000000007f00000000000000000000000000000000000000000000000000000000000000007f0000000000000000000000000000000000000000000000000000000000000000613aa9565b90505b90565b5f828260405160200161309492919061607f565b60405160208183030381529060405280519060200120905092915050565b5f5f7f7fffffffffffffffffffffffffffffff5d576e7357a4501ddfe92f46681b20a0835f1c11156130ea575f600391509150613181565b5f6001878787876040515f815260200160405260405161310d94939291906160b5565b6020604051602081039080840390855afa15801561312d573d5f5f3e3d5ffd5b5050506020604051035190505f73ffffffffffffffffffffffffffffffffffffffff168173ffffffffffffffffffffffffffffffffffffffff1603613179575f60019250925050613181565b805f92509250505b94509492505050565b5f600481111561319d5761319c61483b565b5b8160048111156131b0576131af61483b565b5b03156132ec57600160048111156131ca576131c961483b565b5b8160048111156131dd576131dc61483b565b5b0361321d576040517f08c379a000000000000000000000000000000000000000000000000000000000815260040161321490616142565b60405180910390fd5b600260048111156132315761323061483b565b5b8160048111156132445761324361483b565b5b03613284576040517f08c379a000000000000000000000000000000000000000000000000000000000815260040161327b906161aa565b60405180910390fd5b600360048111156132985761329761483b565b5b8160048111156132ab576132aa61483b565b5b036132eb576040517f08c379a00000000000000000000000000000000000000000000000000000000081526004016132e290616238565b60405180910390fd5b5b50565b5f60075f8781526020019081526020015f209050806003015f8673ffffffffffffffffffffffffffffffffffffffff1673ffffffffffffffffffffffffffffffffffffffff1681526020019081526020015f205f9054906101000a900460ff161561338f576040517f08c379a0000000000000000000000000000000000000000000000000000000008152600401613386906162c6565b60405180910390fd5b6001816003015f8773ffffffffffffffffffffffffffffffffffffffff1673ffffffffffffffffffffffffffffffffffffffff1681526020019081526020015f205f6101000a81548160ff0219169083151502179055505f60028111156133f9576133f861483b565b5b60ff168460ff16036134235782815f015f8282546134179190615619565b925050819055506134dd565b600160028111156134375761343661483b565b5b60ff168460ff16036134625782816001015f8282546134569190615619565b925050819055506134dc565b6002808111156134755761347461483b565b5b60ff168460ff16036134a05782816002015f8282546134949190615619565b925050819055506134db565b6040517f08c379a00000000000000000000000000000000000000000000000000000000081526004016134d290616354565b60405180910390fd5b5b5b505050505050565b5f815f015f9054906101000a9004600f0b600f0b825f0160109054906101000a9004600f0b600f0b13159050919050565b5f7bffffffffffffffffffffffffffffffffffffffffffffffffffffffff8016821115613578576040517f08c379a000000000000000000000000000000000000000000000000000000000815260040161356f906163e2565b60405180910390fd5b819050919050565b5f5f61359f845f0161359143613883565b61359a86613516565b613ae2565b817bffffffffffffffffffffffffffffffffffffffffffffffffffffffff169150807bffffffffffffffffffffffffffffffffffffffffffffffffffffffff169050915091509250929050565b5f825f0160109054906101000a9004600f0b905081836001015f83600f0b600f0b81526020019081526020015f208190555060018101835f0160106101000a8154816fffffffffffffffffffffffffffffffff0219169083600f0b6fffffffffffffffffffffffffffffffff160217905550505050565b600a5f9054906101000a900473ffffffffffffffffffffffffffffffffffffffff1673ffffffffffffffffffffffffffffffffffffffff1663e38335e5348686865f876040518763ffffffff1660e01b81526004016136c69594939291906154d3565b5f604051808303818588803b1580156136dd575f5ffd5b505af11580156136ef573d5f5f3e3d5ffd5b50505050505050505050565b5f815f015f6101000a8154816fffffffffffffffffffffffffffffffff0219169083600f0b6fffffffffffffffffffffffffffffffff1602179055505f815f0160106101000a8154816fffffffffffffffffffffffffffffffff0219169083600f0b6fffffffffffffffffffffffffffffffff16021790555050565b5f5f60015f8481526020019081526020015f209050806002015f9054906101000a900460ff16156137ac57600791505061387e565b8060020160019054906101000a900460ff16156137cd57600291505061387e565b5f6137d784611160565b90505f810361381b576040517f08c379a00000000000000000000000000000000000000000000000000000000081526004016138129061644a565b60405180910390fd5b43811061382c575f9250505061387e565b5f613836856118f3565b905043811061384b576001935050505061387e565b61385485613e4f565b8015613865575061386485613e93565b5b15613876576004935050505061387e565b600393505050505b919050565b5f63ffffffff80168211156138cd576040517f08c379a00000000000000000000000000000000000000000000000000000000081526004016138c4906164d8565b60405180910390fd5b819050919050565b5f5b81831015613939575f6138ea8484613eba565b90508463ffffffff166138fd8783613944565b5f015f9054906101000a900463ffffffff1663ffffffff16111561392357809250613933565b6001816139309190615619565b93505b506138d7565b819050949350505050565b5f825f528160205f2001905092915050565b5f5f825f015167ffffffffffffffff16149050919050565b5f67ffffffffffffffff80168211156139bc576040517f08c379a00000000000000000000000000000000000000000000000000000000081526004016139b390616566565b60405180910390fd5b819050919050565b80825f015f6101000a81548167ffffffffffffffff021916908367ffffffffffffffff1602179055505050565b5f82511115613a035781518083602001fd5b806040517f08c379a0000000000000000000000000000000000000000000000000000000008152600401613a379190614364565b60405180910390fd5b5f7f01ffc9a7000000000000000000000000000000000000000000000000000000007bffffffffffffffffffffffffffffffffffffffffffffffffffffffff1916827bffffffffffffffffffffffffffffffffffffffffffffffffffffffff1916149050919050565b5f8383834630604051602001613ac3959493929190616584565b6040516020818303038152906040528051906020012090509392505050565b5f5f5f858054905090505f811115613d67575f613b0b87600184613b0691906156a8565b613944565b6040518060400160405290815f82015f9054906101000a900463ffffffff1663ffffffff1663ffffffff1681526020015f820160049054906101000a90047bffffffffffffffffffffffffffffffffffffffffffffffffffffffff167bffffffffffffffffffffffffffffffffffffffffffffffffffffffff167bffffffffffffffffffffffffffffffffffffffffffffffffffffffff168152505090508563ffffffff16815f015163ffffffff161115613bfb576040517f08c379a0000000000000000000000000000000000000000000000000000000008152600401613bf29061661f565b60405180910390fd5b8563ffffffff16815f015163ffffffff1603613c7d5784613c2888600185613c2391906156a8565b613944565b5f0160046101000a8154817bffffffffffffffffffffffffffffffffffffffffffffffffffffffff02191690837bffffffffffffffffffffffffffffffffffffffffffffffffffffffff160217905550613d56565b8660405180604001604052808863ffffffff168152602001877bffffffffffffffffffffffffffffffffffffffffffffffffffffffff16815250908060018154018082558091505060019003905f5260205f20015f909190919091505f820151815f015f6101000a81548163ffffffff021916908363ffffffff1602179055506020820151815f0160046101000a8154817bffffffffffffffffffffffffffffffffffffffffffffffffffffffff02191690837bffffffffffffffffffffffffffffffffffffffffffffffffffffffff16021790555050505b806020015185935093505050613e47565b8560405180604001604052808763ffffffff168152602001867bffffffffffffffffffffffffffffffffffffffffffffffffffffffff16815250908060018154018082558091505060019003905f5260205f20015f909190919091505f820151815f015f6101000a81548163ffffffff021916908363ffffffff1602179055506020820151815f0160046101000a8154817bffffffffffffffffffffffffffffffffffffffffffffffffffffffff02191690837bffffffffffffffffffffffffffffffffffffffffffffffffffffffff16021790555050505f8492509250505b935093915050565b5f5f60075f8481526020019081526020015f20905080600201548160010154613e789190615619565b613e89613e8485611160565b611dbe565b1115915050919050565b5f5f60075f8481526020019081526020015f209050805f0154816001015411915050919050565b5f6002828418613eca9190615fdb565b828416613ed79190615619565b905092915050565b5f604051905090565b5f5ffd5b5f5ffd5b5f7fffffffff0000000000000000000000000000000000000000000000000000000082169050919050565b613f2481613ef0565b8114613f2e575f5ffd5b50565b5f81359050613f3f81613f1b565b92915050565b5f60208284031215613f5a57613f59613ee8565b5b5f613f6784828501613f31565b91505092915050565b5f8115159050919050565b613f8481613f70565b82525050565b5f602082019050613f9d5f830184613f7b565b92915050565b5f819050919050565b613fb581613fa3565b82525050565b5f602082019050613fce5f830184613fac565b92915050565b613fdd81613fa3565b8114613fe7575f5ffd5b50565b5f81359050613ff881613fd4565b92915050565b5f60ff82169050919050565b61401381613ffe565b811461401d575f5ffd5b50565b5f8135905061402e8161400a565b92915050565b5f5ffd5b5f5ffd5b5f5ffd5b5f5f83601f84011261405557614054614034565b5b8235905067ffffffffffffffff81111561407257614071614038565b5b60208301915083600182028301111561408e5761408d61403c565b5b9250929050565b5f5ffd5b5f601f19601f8301169050919050565b7f4e487b71000000000000000000000000000000000000000000000000000000005f52604160045260245ffd5b6140df82614099565b810181811067ffffffffffffffff821117156140fe576140fd6140a9565b5b80604052505050565b5f614110613edf565b905061411c82826140d6565b919050565b5f67ffffffffffffffff82111561413b5761413a6140a9565b5b61414482614099565b9050602081019050919050565b828183375f83830152505050565b5f61417161416c84614121565b614107565b90508281526020810184848401111561418d5761418c614095565b5b614198848285614151565b509392505050565b5f82601f8301126141b4576141b3614034565b5b81356141c484826020860161415f565b91505092915050565b5f819050919050565b6141df816141cd565b81146141e9575f5ffd5b50565b5f813590506141fa816141d6565b92915050565b5f5f5f5f5f5f5f5f60e0898b03121561421c5761421b613ee8565b5b5f6142298b828c01613fea565b985050602061423a8b828c01614020565b975050604089013567ffffffffffffffff81111561425b5761425a613eec565b5b6142678b828c01614040565b9650965050606089013567ffffffffffffffff81111561428a57614289613eec565b5b6142968b828c016141a0565b94505060806142a78b828c01614020565b93505060a06142b88b828c016141ec565b92505060c06142c98b828c016141ec565b9150509295985092959890939650565b5f602082840312156142ee576142ed613ee8565b5b5f6142fb84828501613fea565b91505092915050565b5f81519050919050565b5f82825260208201905092915050565b8281835e5f83830152505050565b5f61433682614304565b614340818561430e565b935061435081856020860161431e565b61435981614099565b840191505092915050565b5f6020820190508181035f83015261437c818461432c565b905092915050565b5f73ffffffffffffffffffffffffffffffffffffffff82169050919050565b5f6143ad82614384565b9050919050565b6143bd816143a3565b81146143c7575f5ffd5b50565b5f813590506143d8816143b4565b92915050565b5f5f5f5f608085870312156143f6576143f5613ee8565b5b5f614403878288016143ca565b9450506020614414878288016143ca565b935050604061442587828801613fea565b925050606085013567ffffffffffffffff81111561444657614445613eec565b5b614452878288016141a0565b91505092959194509250565b61446781613ef0565b82525050565b5f6020820190506144805f83018461445e565b92915050565b5f67ffffffffffffffff8211156144a05761449f6140a9565b5b602082029050602081019050919050565b5f6144c36144be84614486565b614107565b905080838252602082019050602084028301858111156144e6576144e561403c565b5b835b8181101561450f57806144fb88826143ca565b8452602084019350506020810190506144e8565b5050509392505050565b5f82601f83011261452d5761452c614034565b5b813561453d8482602086016144b1565b91505092915050565b5f67ffffffffffffffff8211156145605761455f6140a9565b5b602082029050602081019050919050565b5f61458361457e84614546565b614107565b905080838252602082019050602084028301858111156145a6576145a561403c565b5b835b818110156145cf57806145bb8882613fea565b8452602084019350506020810190506145a8565b5050509392505050565b5f82601f8301126145ed576145ec614034565b5b81356145fd848260208601614571565b91505092915050565b5f67ffffffffffffffff8211156146205761461f6140a9565b5b602082029050602081019050919050565b5f61464361463e84614606565b614107565b905080838252602082019050602084028301858111156146665761466561403c565b5b835b818110156146ad57803567ffffffffffffffff81111561468b5761468a614034565b5b80860161469889826141a0565b85526020850194505050602081019050614668565b5050509392505050565b5f82601f8301126146cb576146ca614034565b5b81356146db848260208601614631565b91505092915050565b5f5f5f5f608085870312156146fc576146fb613ee8565b5b5f85013567ffffffffffffffff81111561471957614718613eec565b5b61472587828801614519565b945050602085013567ffffffffffffffff81111561474657614745613eec565b5b614752878288016145d9565b935050604085013567ffffffffffffffff81111561477357614772613eec565b5b61477f878288016146b7565b9250506060614790878288016141ec565b91505092959194509250565b6147a5816141cd565b82525050565b5f6020820190506147be5f83018461479c565b92915050565b5f5f5f5f5f60a086880312156147dd576147dc613ee8565b5b5f6147ea88828901613fea565b95505060206147fb88828901614020565b945050604061480c88828901614020565b935050606061481d888289016141ec565b925050608061482e888289016141ec565b9150509295509295909350565b7f4e487b71000000000000000000000000000000000000000000000000000000005f52602160045260245ffd5b600881106148795761487861483b565b5b50565b5f81905061488982614868565b919050565b5f6148988261487c565b9050919050565b6148a88161488e565b82525050565b5f6020820190506148c15f83018461489f565b92915050565b5f5f604083850312156148dd576148dc613ee8565b5b5f6148ea85828601613fea565b92505060206148fb858286016143ca565b9150509250929050565b5f6060820190506149185f830186613fac565b6149256020830185613fac565b6149326040830184613fac565b949350505050565b5f5f604083850312156149505761494f613ee8565b5b5f61495d85828601613fea565b925050602061496e85828601614020565b9150509250929050565b5f5f5f5f5f6080868803121561499157614990613ee8565b5b5f61499e88828901613fea565b95505060206149af88828901614020565b945050604086013567ffffffffffffffff8111156149d0576149cf613eec565b5b6149dc88828901614040565b9350935050606086013567ffffffffffffffff8111156149ff576149fe613eec565b5b614a0b888289016141a0565b9150509295509295909350565b5f5f5f5f60608587031215614a3057614a2f613ee8565b5b5f614a3d87828801613fea565b9450506020614a4e87828801614020565b935050604085013567ffffffffffffffff811115614a6f57614a6e613eec565b5b614a7b87828801614040565b925092505092959194509250565b5f67ffffffffffffffff821115614aa357614aa26140a9565b5b614aac82614099565b9050602081019050919050565b5f614acb614ac684614a89565b614107565b905082815260208101848484011115614ae757614ae6614095565b5b614af2848285614151565b509392505050565b5f82601f830112614b0e57614b0d614034565b5b8135614b1e848260208601614ab9565b91505092915050565b5f5f5f5f60808587031215614b3f57614b3e613ee8565b5b5f85013567ffffffffffffffff811115614b5c57614b5b613eec565b5b614b6887828801614519565b945050602085013567ffffffffffffffff811115614b8957614b88613eec565b5b614b95878288016145d9565b935050604085013567ffffffffffffffff811115614bb657614bb5613eec565b5b614bc2878288016146b7565b925050606085013567ffffffffffffffff811115614be357614be2613eec565b5b614bef87828801614afa565b91505092959194509250565b5f5f5f60608486031215614c1257614c11613ee8565b5b5f614c1f868287016143ca565b9350506020614c3086828701613fea565b925050604084013567ffffffffffffffff811115614c5157614c50613eec565b5b614c5d868287016141a0565b9150509250925092565b5f614c7182614384565b9050919050565b5f614c8282614c67565b9050919050565b614c9281614c78565b8114614c9c575f5ffd5b50565b5f81359050614cad81614c89565b92915050565b5f60208284031215614cc857614cc7613ee8565b5b5f614cd584828501614c9f565b91505092915050565b5f5f5f5f5f60a08688031215614cf757614cf6613ee8565b5b5f614d04888289016143ca565b9550506020614d15888289016143ca565b945050604086013567ffffffffffffffff811115614d3657614d35613eec565b5b614d42888289016145d9565b935050606086013567ffffffffffffffff811115614d6357614d62613eec565b5b614d6f888289016145d9565b925050608086013567ffffffffffffffff811115614d9057614d8f613eec565b5b614d9c888289016141a0565b9150509295509295909350565b5f5f83601f840112614dbe57614dbd614034565b5b8235905067ffffffffffffffff811115614ddb57614dda614038565b5b602083019150836001820283011115614df757614df661403c565b5b9250929050565b5f5f5f5f60608587031215614e1657614e15613ee8565b5b5f614e23878288016143ca565b9450506020614e3487828801613fea565b935050604085013567ffffffffffffffff811115614e5557614e54613eec565b5b614e6187828801614da9565b925092505092959194509250565b614e78816143a3565b82525050565b5f602082019050614e915f830184614e6f565b92915050565b5f5f60408385031215614ead57614eac613ee8565b5b5f614eba858286016143ca565b9250506020614ecb85828601613fea565b9150509250929050565b5f5f5f5f5f60a08688031215614eee57614eed613ee8565b5b5f614efb888289016143ca565b9550506020614f0c888289016143ca565b9450506040614f1d88828901613fea565b9350506060614f2e88828901613fea565b925050608086013567ffffffffffffffff811115614f4f57614f4e613eec565b5b614f5b888289016141a0565b9150509295509295909350565b5f819050919050565b5f614f8b614f86614f8184614384565b614f68565b614384565b9050919050565b5f614f9c82614f71565b9050919050565b5f614fad82614f92565b9050919050565b614fbd81614fa3565b82525050565b5f602082019050614fd65f830184614fb4565b92915050565b5f81905092915050565b5f614ff18385614fdc565b9350614ffe838584614151565b82840190509392505050565b5f615016828486614fe6565b91508190509392505050565b61502b81613ffe565b82525050565b5f60a0820190506150445f83018861479c565b6150516020830187613fac565b61505e6040830186615022565b61506b606083018561479c565b615078608083018461479c565b9695505050505050565b7f476f7665726e6f723a206f6e6c79476f7665726e616e636500000000000000005f82015250565b5f6150b660188361430e565b91506150c182615082565b602082019050919050565b5f6020820190508181035f8301526150e3816150aa565b9050919050565b7f4e487b71000000000000000000000000000000000000000000000000000000005f52602260045260245ffd5b5f600282049050600182168061512e57607f821691505b602082108103615141576151406150ea565b5b50919050565b7f476f7665726e6f723a2070726f706f73616c206e6f74207375636365737366755f8201527f6c00000000000000000000000000000000000000000000000000000000000000602082015250565b5f6151a160218361430e565b91506151ac82615147565b604082019050919050565b5f6020820190508181035f8301526151ce81615195565b9050919050565b5f815190506151e381613fd4565b92915050565b5f602082840312156151fe576151fd613ee8565b5b5f61520b848285016151d5565b91505092915050565b5f81519050919050565b5f82825260208201905092915050565b5f819050602082019050919050565b615246816143a3565b82525050565b5f615257838361523d565b60208301905092915050565b5f602082019050919050565b5f61527982615214565b615283818561521e565b935061528e8361522e565b805f5b838110156152be5781516152a5888261524c565b97506152b083615263565b925050600181019050615291565b5085935050505092915050565b5f81519050919050565b5f82825260208201905092915050565b5f819050602082019050919050565b6152fd81613fa3565b82525050565b5f61530e83836152f4565b60208301905092915050565b5f602082019050919050565b5f615330826152cb565b61533a81856152d5565b9350615345836152e5565b805f5b8381101561537557815161535c8882615303565b97506153678361531a565b925050600181019050615348565b5085935050505092915050565b5f81519050919050565b5f82825260208201905092915050565b5f819050602082019050919050565b5f81519050919050565b5f82825260208201905092915050565b5f6153cf826153ab565b6153d981856153b5565b93506153e981856020860161431e565b6153f281614099565b840191505092915050565b5f61540883836153c5565b905092915050565b5f602082019050919050565b5f61542682615382565b615430818561538c565b9350836020820285016154428561539c565b805f5b8581101561547d578484038952815161545e85826153fd565b945061546983615410565b925060208a01995050600181019050615445565b50829750879550505050505092915050565b5f819050919050565b5f815f1b9050919050565b5f6154bd6154b86154b38461548f565b615498565b6141cd565b9050919050565b6154cd816154a3565b82525050565b5f60a0820190508181035f8301526154eb818861526f565b905081810360208301526154ff8187615326565b90508181036040830152615513818661541c565b905061552260608301856154c4565b61552f608083018461479c565b9695505050505050565b5f81519050615547816141d6565b92915050565b5f6020828403121561556257615561613ee8565b5b5f61556f84828501615539565b91505092915050565b5f60c0820190508181035f830152615590818961526f565b905081810360208301526155a48188615326565b905081810360408301526155b8818761541c565b90506155c760608301866154c4565b6155d4608083018561479c565b6155e160a0830184613fac565b979650505050505050565b7f4e487b71000000000000000000000000000000000000000000000000000000005f52601160045260245ffd5b5f61562382613fa3565b915061562e83613fa3565b9250828201905080821115615646576156456155ec565b5b92915050565b5f60408201905061565f5f830185613fac565b61566c6020830184613fac565b9392505050565b5f6060820190506156865f83018661479c565b6156936020830185613fac565b6156a06040830184615022565b949350505050565b5f6156b282613fa3565b91506156bd83613fa3565b92508282039050818111156156d5576156d46155ec565b5b92915050565b7f4e487b71000000000000000000000000000000000000000000000000000000005f52603260045260245ffd5b5f6080820190508181035f830152615720818761526f565b905081810360208301526157348186615326565b90508181036040830152615748818561541c565b9050615757606083018461479c565b95945050505050565b7f476f7665726e6f723a20766f7465206e6f742063757272656e746c79206163745f8201527f6976650000000000000000000000000000000000000000000000000000000000602082015250565b5f6157ba60238361430e565b91506157c582615760565b604082019050919050565b5f6020820190508181035f8301526157e7816157ae565b9050919050565b5f6080820190506158015f830187613fac565b61580e6020830186615022565b61581b6040830185613fac565b818103606083015261582d818461432c565b905095945050505050565b5f82825260208201905092915050565b5f615852826153ab565b61585c8185615838565b935061586c81856020860161431e565b61587581614099565b840191505092915050565b5f60a0820190506158935f830188613fac565b6158a06020830187615022565b6158ad6040830186613fac565b81810360608301526158bf818561432c565b905081810360808301526158d38184615848565b90509695505050505050565b7f476f7665726e6f72566f74657351756f72756d4672616374696f6e3a2071756f5f8201527f72756d4e756d657261746f72206f7665722071756f72756d44656e6f6d696e6160208201527f746f720000000000000000000000000000000000000000000000000000000000604082015250565b5f61595f60438361430e565b915061596a826158df565b606082019050919050565b5f6020820190508181035f83015261598c81615953565b9050919050565b61599c81613f70565b81146159a6575f5ffd5b50565b5f815190506159b781615993565b92915050565b5f602082840312156159d2576159d1613ee8565b5b5f6159df848285016159a9565b91505092915050565b7f436865636b706f696e74733a20626c6f636b206e6f7420796574206d696e65645f82015250565b5f615a1c60208361430e565b9150615a27826159e8565b602082019050919050565b5f6020820190508181035f830152615a4981615a10565b9050919050565b7f476f7665726e6f723a2070726f706f73657220766f7465732062656c6f7720705f8201527f726f706f73616c207468726573686f6c64000000000000000000000000000000602082015250565b5f615aaa60318361430e565b9150615ab582615a50565b604082019050919050565b5f6020820190508181035f830152615ad781615a9e565b9050919050565b7f476f7665726e6f723a20696e76616c69642070726f706f73616c206c656e67745f8201527f6800000000000000000000000000000000000000000000000000000000000000602082015250565b5f615b3860218361430e565b9150615b4382615ade565b604082019050919050565b5f6020820190508181035f830152615b6581615b2c565b9050919050565b7f476f7665726e6f723a20656d7074792070726f706f73616c00000000000000005f82015250565b5f615ba060188361430e565b9150615bab82615b6c565b602082019050919050565b5f6020820190508181035f830152615bcd81615b94565b9050919050565b7f476f7665726e6f723a2070726f706f73616c20616c72656164792065786973745f8201527f7300000000000000000000000000000000000000000000000000000000000000602082015250565b5f615c2e60218361430e565b9150615c3982615bd4565b604082019050919050565b5f6020820190508181035f830152615c5b81615c22565b9050919050565b5f67ffffffffffffffff82169050919050565b5f615c7f82615c62565b9150615c8a83615c62565b9250828201905067ffffffffffffffff811115615caa57615ca96155ec565b5b92915050565b5f81519050919050565b5f82825260208201905092915050565b5f819050602082019050919050565b5f82825260208201905092915050565b5f615cf382614304565b615cfd8185615cd9565b9350615d0d81856020860161431e565b615d1681614099565b840191505092915050565b5f615d2c8383615ce9565b905092915050565b5f602082019050919050565b5f615d4a82615cb0565b615d548185615cba565b935083602082028501615d6685615cca565b805f5b85811015615da15784840389528151615d828582615d21565b9450615d8d83615d34565b925060208a01995050600181019050615d69565b50829750879550505050505092915050565b5f615dcd615dc8615dc384615c62565b614f68565b613fa3565b9050919050565b615ddd81615db3565b82525050565b5f61012082019050615df75f83018c613fac565b615e04602083018b614e6f565b8181036040830152615e16818a61526f565b90508181036060830152615e2a8189615326565b90508181036080830152615e3e8188615d40565b905081810360a0830152615e52818761541c565b9050615e6160c0830186615dd4565b615e6e60e0830185615dd4565b818103610100830152615e81818461432c565b90509a9950505050505050505050565b5f604082019050615ea45f830185614e6f565b615eb16020830184613fac565b9392505050565b5f604082019050615ecb5f830185614e6f565b615ed86020830184614e6f565b9392505050565b7f476f7665726e6f7253657474696e67733a20766f74696e6720706572696f64205f8201527f746f6f206c6f7700000000000000000000000000000000000000000000000000602082015250565b5f615f3960278361430e565b9150615f4482615edf565b604082019050919050565b5f6020820190508181035f830152615f6681615f2d565b9050919050565b5f615f7782613fa3565b9150615f8283613fa3565b9250828202615f9081613fa3565b91508282048414831517615fa757615fa66155ec565b5b5092915050565b7f4e487b71000000000000000000000000000000000000000000000000000000005f52601260045260245ffd5b5f615fe582613fa3565b9150615ff083613fa3565b92508261600057615fff615fae565b5b828204905092915050565b5f81905092915050565b7f19010000000000000000000000000000000000000000000000000000000000005f82015250565b5f61604960028361600b565b915061605482616015565b600282019050919050565b5f819050919050565b616079616074826141cd565b61605f565b82525050565b5f6160898261603d565b91506160958285616068565b6020820191506160a58284616068565b6020820191508190509392505050565b5f6080820190506160c85f83018761479c565b6160d56020830186615022565b6160e2604083018561479c565b6160ef606083018461479c565b95945050505050565b7f45434453413a20696e76616c6964207369676e617475726500000000000000005f82015250565b5f61612c60188361430e565b9150616137826160f8565b602082019050919050565b5f6020820190508181035f83015261615981616120565b9050919050565b7f45434453413a20696e76616c6964207369676e6174757265206c656e677468005f82015250565b5f616194601f8361430e565b915061619f82616160565b602082019050919050565b5f6020820190508181035f8301526161c181616188565b9050919050565b7f45434453413a20696e76616c6964207369676e6174757265202773272076616c5f8201527f7565000000000000000000000000000000000000000000000000000000000000602082015250565b5f61622260228361430e565b915061622d826161c8565b604082019050919050565b5f6020820190508181035f83015261624f81616216565b9050919050565b7f476f7665726e6f72566f74696e6753696d706c653a20766f746520616c7265615f8201527f6479206361737400000000000000000000000000000000000000000000000000602082015250565b5f6162b060278361430e565b91506162bb82616256565b604082019050919050565b5f6020820190508181035f8301526162dd816162a4565b9050919050565b7f476f7665726e6f72566f74696e6753696d706c653a20696e76616c69642076615f8201527f6c756520666f7220656e756d20566f7465547970650000000000000000000000602082015250565b5f61633e60358361430e565b9150616349826162e4565b604082019050919050565b5f6020820190508181035f83015261636b81616332565b9050919050565b7f53616665436173743a2076616c756520646f65736e27742066697420696e20325f8201527f3234206269747300000000000000000000000000000000000000000000000000602082015250565b5f6163cc60278361430e565b91506163d782616372565b604082019050919050565b5f6020820190508181035f8301526163f9816163c0565b9050919050565b7f476f7665726e6f723a20756e6b6e6f776e2070726f706f73616c2069640000005f82015250565b5f616434601d8361430e565b915061643f82616400565b602082019050919050565b5f6020820190508181035f83015261646181616428565b9050919050565b7f53616665436173743a2076616c756520646f65736e27742066697420696e20335f8201527f3220626974730000000000000000000000000000000000000000000000000000602082015250565b5f6164c260268361430e565b91506164cd82616468565b604082019050919050565b5f6020820190508181035f8301526164ef816164b6565b9050919050565b7f53616665436173743a2076616c756520646f65736e27742066697420696e20365f8201527f3420626974730000000000000000000000000000000000000000000000000000602082015250565b5f61655060268361430e565b915061655b826164f6565b604082019050919050565b5f6020820190508181035f83015261657d81616544565b9050919050565b5f60a0820190506165975f83018861479c565b6165a4602083018761479c565b6165b1604083018661479c565b6165be6060830185613fac565b6165cb6080830184614e6f565b9695505050505050565b7f436865636b706f696e743a20696e76616c6964206b65790000000000000000005f82015250565b5f61660960178361430e565b9150616614826165d5565b602082019050919050565b5f6020820190508181035f830152616636816165fd565b905091905056fe476f7665726e6f723a2072656c617920726576657274656420776974686f7574206d657373616765a264697066735822122090d2de010a3e7f011a2f3c27b639e4b94a976ff212452181867e2965bf77398264736f6c634300081c0033","linkReferences":{}},"methodIdentifiers":{"BALLOT_TYPEHASH()":"deaaa7cc","COUNTING_MODE()":"dd4e2ba5","EXTENDED_BALLOT_TYPEHASH()":"2fe3e261","castVote(uint256,uint8)":"56781388","castVoteBySig(uint256,uint8,uint8,bytes32,bytes32)":"3bccf4fd","castVoteWithReason(uint256,uint8,string)":"7b3c71d3","castVoteWithReasonAndParams(uint256,uint8,string,bytes)":"5f398a14","castVoteWithReasonAndParamsBySig(uint256,uint8,string,bytes,uint8,bytes32,bytes32)":"03420181","execute(address[],uint256[],bytes[],bytes32)":"2656227d","getVotes(address,uint256)":"eb9019d4","getVotesWithParams(address,uint256,bytes)":"9a802a6d","hasVoted(uint256,address)":"43859632","hashProposal(address[],uint256[],bytes[],bytes32)":"c59057e4","name()":"06fdde03","onERC1155BatchReceived(address,address,uint256[],uint256[],bytes)":"bc197c81","onERC1155Received(address,address,uint256,uint256,bytes)":"f23a6e61","onERC721Received(address,address,uint256,bytes)":"150b7a02","proposalDeadline(uint256)":"c01f9e37","proposalEta(uint256)":"ab58fb8e","proposalSnapshot(uint256)":"2d63f693","proposalThreshold()":"b58131b0","proposalVotes(uint256)":"544ffc9c","propose(address[],uint256[],bytes[],string)":"7d5e81e2","queue(address[],uint256[],bytes[],bytes32)":"160cbed7","quorum(uint256)":"f8ce560a","quorumDenominator()":"97c3d334","quorumNumerator()":"a7713a70","quorumNumerator(uint256)":"60c4247f","relay(address,uint256,bytes)":"c28bc2fa","setProposalThreshold(uint256)":"ece40cc1","setVotingDelay(uint256)":"70b0f660","setVotingPeriod(uint256)":"ea0217cf","state(uint256)":"3e4f49e6","supportsInterface(bytes4)":"01ffc9a7","timelock()":"d33219b4","token()":"fc0c546a","updateQuorumNumerator(uint256)":"06f3f9e6","updateTimelock(address)":"a890c910","version()":"54fd4d50","votingDelay()":"3932abb1","votingPeriod()":"02a251a3"},"id":55}