{"abi":[{"type":"constructor","inputs":[],"stateMutability":"nonpayable"},{"type":"function","name":"DOMAIN_SEPARATOR","inputs":[],"outputs":[{"name":"","type":"bytes32","internalType":"bytes32"}],"stateMutability":"view"},{"type":"function","name":"allowance","inputs":[{"name":"owner","type":"address","internalType":"address"},{"name":"spender","type":"address","internalType":"address"}],"outputs":[{"name":"","type":"uint256","internalType":"uint256"}],"stateMutability":"view"},{"type":"function","name":"approve","inputs":[{"name":"spender","type":"address","internalType":"address"},{"name":"amount","type":"uint256","internalType":"uint256"}],"outputs":[{"name":"","type":"bool","internalType":"bool"}],"stateMutability":"nonpayable"},{"type":"function","name":"balanceOf","inputs":[{"name":"account","type":"address","internalType":"address"}],"outputs":[{"name":"","type":"uint256","internalType":"uint256"}],"stateMutability":"view"},{"type":"function","name":"checkpoints","inputs":[{"name":"account","type":"address","internalType":"address"},{"name":"pos","type":"uint32","internalType":"uint32"}],"outputs":[{"name":"","type":"tuple","internalType":"struct ERC20Votes.Checkpoint","components":[{"name":"fromBlock","type":"uint32","internalType":"uint32"},{"name":"votes","type":"uint224","internalType":"uint224"}]}],"stateMutability":"view"},{"type":"function","name":"decimals","inputs":[],"outputs":[{"name":"","type":"uint8","internalType":"uint8"}],"stateMutability":"view"},{"type":"function","name":"decreaseAllowance","inputs":[{"name":"spender","type":"address","internalType":"address"},{"name":"subtractedValue","type":"uint256","internalType":"uint256"}],"outputs":[{"name":"","type":"bool","internalType":"bool"}],"stateMutability":"nonpayable"},{"type":"function","name":"delegate","inputs":[{"name":"delegatee","type":"address","internalType":"address"}],"outputs":[],"stateMutability":"nonpayable"},{"type":"function","name":"delegateBySig","inputs":[{"name":"delegatee","type":"address","internalType":"address"},{"name":"nonce","type":"uint256","internalType":"uint256"},{"name":"expiry","type":"uint256","internalType":"uint256"},{"name":"v","type":"uint8","internalType":"uint8"},{"name":"r","type":"bytes32","internalType":"bytes32"},{"name":"s","type":"bytes32","internalType":"bytes32"}],"outputs":[],"stateMutability":"nonpayable"},{"type":"function","name":"delegates","inputs":[{"name":"account","type":"address","internalType":"address"}],"outputs":[{"name":"","type":"address","internalType":"address"}],"stateMutability":"view"},{"type":"function","name":"getPastTotalSupply","inputs":[{"name":"blockNumber","type":"uint256","internalType":"uint256"}],"outputs":[{"name":"","type":"uint256","internalType":"uint256"}],"stateMutability":"view"},{"type":"function","name":"getPastVotes","inputs":[{"name":"account","type":"address","internalType":"address"},{"name":"blockNumber","type":"uint256","internalType":"uint256"}],"outputs":[{"name":"","type":"uint256","internalType":"uint256"}],"stateMutability":"view"},{"type":"function","name":"getVotes","inputs":[{"name":"account","type":"address","internalType":"address"}],"outputs":[{"name":"","type":"uint256","internalType":"uint256"}],"stateMutability":"view"},{"type":"function","name":"increaseAllowance","inputs":[{"name":"spender","type":"address","internalType":"address"},{"name":"addedValue","type":"uint256","internalType":"uint256"}],"outputs":[{"name":"","type":"bool","internalType":"bool"}],"stateMutability":"nonpayable"},{"type":"function","name":"mint","inputs":[{"name":"to","type":"address","internalType":"address"},{"name":"amount","type":"uint256","internalType":"uint256"}],"outputs":[],"stateMutability":"nonpayable"},{"type":"function","name":"name","inputs":[],"outputs":[{"name":"","type":"string","internalType":"string"}],"stateMutability":"view"},{"type":"function","name":"nonces","inputs":[{"name":"owner","type":"address","internalType":"address"}],"outputs":[{"name":"","type":"uint256","internalType":"uint256"}],"stateMutability":"view"},{"type":"function","name":"numCheckpoints","inputs":[{"name":"account","type":"address","internalType":"address"}],"outputs":[{"name":"","type":"uint32","internalType":"uint32"}],"stateMutability":"view"},{"type":"function","name":"permit","inputs":[{"name":"owner","type":"address","internalType":"address"},{"name":"spender","type":"address","internalType":"address"},{"name":"value","type":"uint256","internalType":"uint256"},{"name":"deadline","type":"uint256","internalType":"uint256"},{"name":"v","type":"uint8","internalType":"uint8"},{"name":"r","type":"bytes32","internalType":"bytes32"},{"name":"s","type":"bytes32","internalType":"bytes32"}],"outputs":[],"stateMutability":"nonpayable"},{"type":"function","name":"symbol","inputs":[],"outputs":[{"name":"","type":"string","internalType":"string"}],"stateMutability":"view"},{"type":"function","name":"totalSupply","inputs":[],"outputs":[{"name":"","type":"uint256","internalType":"uint256"}],"stateMutability":"view"},{"type":"function","name":"transfer","inputs":[{"name":"to","type":"address","internalType":"address"},{"name":"amount","type":"uint256","internalType":"uint256"}],"outputs":[{"name":"","type":"bool","internalType":"bool"}],"stateMutability":"nonpayable"},{"type":"function","name":"transferFrom","inputs":[{"name":"from","type":"address","internalType":"address"},{"name":"to","type":"address","internalType":"address"},{"name":"amount","type":"uint256","internalType":"uint256"}],"outputs":[{"name":"","type":"bool","internalType":"bool"}],"stateMutability":"nonpayable"},{"type":"event","name":"Approval","inputs":[{"name":"owner","type":"address","indexed":true,"internalType":"address"},{"name":"spender","type":"address","indexed":true,"internalType":"address"},{"name":"value","type":"uint256","indexed":false,"internalType":"uint256"}],"anonymous":false},{"type":"event","name":"DelegateChanged","inputs":[{"name":"delegator","type":"address","indexed":true,"internalType":"address"},{"name":"fromDelegate","type":"address","indexed":true,"internalType":"address"},{"name":"toDelegate","type":"address","indexed":true,"internalType":"address"}],"anonymous":false},{"type":"event","name":"DelegateVotesChanged","inputs":[{"name":"delegate","type":"address","indexed":true,"internalType":"address"},{"name":"previousBalance","type":"uint256","indexed":false,"internalType":"uint256"},{"name":"newBalance","type":"uint256","indexed":false,"internalType":"uint256"}],"anonymous":false},{"type":"event","name":"Transfer","inputs":[{"name":"from","type":"address","indexed":true,"internalType":"address"},{"name":"to","type":"address","indexed":true,"internalType":"address"},{"name":"value","type":"uint256","indexed":false,"internalType":"uint256"}],"anonymous":false}],"bytecode":{"object":"0x610140604052348015610010575f5ffd5b506040518060400160405280600781526020017f4d79546f6b656e00000000000000000000000000000000000000000000000000815250806040518060400160405280600181526020017f31000000000000000000000000000000000000000000000000000000000000008152506040518060400160405280600781526020017f4d79546f6b656e000000000000000000000000000000000000000000000000008152506040518060400160405280600381526020017f4d544b000000000000000000000000000000000000000000000000000000000081525081600390816100f99190610435565b5080600490816101099190610435565b5050505f828051906020012090505f828051906020012090505f7f8b73c3c69bb8fe3d512ecc4cf759cc79239f7b179b0ffacaa9a75d522b39400f90508260e081815250508161010081815250504660a081815250506101708184846101bf60201b60201c565b608081815250503073ffffffffffffffffffffffffffffffffffffffff1660c08173ffffffffffffffffffffffffffffffffffffffff16815250508061012081815250505050505050506105bb565b5f83838346306040516020016101d995949392919061056a565b6040516020818303038152906040528051906020012090509392505050565b5f81519050919050565b7f4e487b71000000000000000000000000000000000000000000000000000000005f52604160045260245ffd5b7f4e487b71000000000000000000000000000000000000000000000000000000005f52602260045260245ffd5b5f600282049050600182168061027357607f821691505b6020821081036102865761028561022f565b5b50919050565b5f819050815f5260205f209050919050565b5f6020601f8301049050919050565b5f82821b905092915050565b5f600883026102e87fffffffffffffffffffffffffffffffffffffffffffffffffffffffffffffffff826102ad565b6102f286836102ad565b95508019841693508086168417925050509392505050565b5f819050919050565b5f819050919050565b5f61033661033161032c8461030a565b610313565b61030a565b9050919050565b5f819050919050565b61034f8361031c565b61036361035b8261033d565b8484546102b9565b825550505050565b5f5f905090565b61037a61036b565b610385818484610346565b505050565b5b818110156103a85761039d5f82610372565b60018101905061038b565b5050565b601f8211156103ed576103be8161028c565b6103c78461029e565b810160208510156103d6578190505b6103ea6103e28561029e565b83018261038a565b50505b505050565b5f82821c905092915050565b5f61040d5f19846008026103f2565b1980831691505092915050565b5f61042583836103fe565b9150826002028217905092915050565b61043e826101f8565b67ffffffffffffffff81111561045757610456610202565b5b610461825461025c565b61046c8282856103ac565b5f60209050601f83116001811461049d575f841561048b578287015190505b610495858261041a565b8655506104fc565b601f1984166104ab8661028c565b5f5b828110156104d2578489015182556001820191506020850194506020810190506104ad565b868310156104ef57848901516104eb601f8916826103fe565b8355505b6001600288020188555050505b505050505050565b5f819050919050565b61051681610504565b82525050565b6105258161030a565b82525050565b5f73ffffffffffffffffffffffffffffffffffffffff82169050919050565b5f6105548261052b565b9050919050565b6105648161054a565b82525050565b5f60a08201905061057d5f83018861050d565b61058a602083018761050d565b610597604083018661050d565b6105a4606083018561051c565b6105b1608083018461055b565b9695505050505050565b60805160a05160c05160e05161010051610120516137356106025f395f6113e301525f61142501525f61140401525f61133901525f61138f01525f6113b801526137355ff3fe608060405234801561000f575f5ffd5b506004361061014b575f3560e01c80636fcfff45116100c1578063a457c2d71161007a578063a457c2d7146103fd578063a9059cbb1461042d578063c3cda5201461045d578063d505accf14610479578063dd62ed3e14610495578063f1127ed8146104c55761014b565b80636fcfff45146102ef57806370a082311461031f5780637ecebe001461034f5780638e539e8c1461037f57806395d89b41146103af5780639ab24eb0146103cd5761014b565b80633644e515116101135780633644e5151461020957806339509351146102275780633a46b1a81461025757806340c10f1914610287578063587cde1e146102a35780635c19a95c146102d35761014b565b806306fdde031461014f578063095ea7b31461016d57806318160ddd1461019d57806323b872dd146101bb578063313ce567146101eb575b5f5ffd5b6101576104f5565b60405161016491906124be565b60405180910390f35b6101876004803603810190610182919061256f565b610585565b60405161019491906125c7565b60405180910390f35b6101a56105a7565b6040516101b291906125ef565b60405180910390f35b6101d560048036038101906101d09190612608565b6105b0565b6040516101e291906125c7565b60405180910390f35b6101f36105de565b6040516102009190612673565b60405180910390f35b6102116105e6565b60405161021e91906126a4565b60405180910390f35b610241600480360381019061023c919061256f565b6105f4565b60405161024e91906125c7565b60405180910390f35b610271600480360381019061026c919061256f565b61062a565b60405161027e91906125ef565b60405180910390f35b6102a1600480360381019061029c919061256f565b6106bb565b005b6102bd60048036038101906102b891906126bd565b6106c9565b6040516102ca91906126f7565b60405180910390f35b6102ed60048036038101906102e891906126bd565b61072e565b005b610309600480360381019061030491906126bd565b610742565b604051610316919061272e565b60405180910390f35b610339600480360381019061033491906126bd565b610793565b60405161034691906125ef565b60405180910390f35b610369600480360381019061036491906126bd565b6107d8565b60405161037691906125ef565b60405180910390f35b61039960048036038101906103949190612747565b610825565b6040516103a691906125ef565b60405180910390f35b6103b761087a565b6040516103c491906124be565b60405180910390f35b6103e760048036038101906103e291906126bd565b61090a565b6040516103f491906125ef565b60405180910390f35b6104176004803603810190610412919061256f565b610a11565b60405161042491906125c7565b60405180910390f35b6104476004803603810190610442919061256f565b610a86565b60405161045491906125c7565b60405180910390f35b610477600480360381019061047291906127c6565b610aa8565b005b610493600480360381019061048e919061284f565b610bab565b005b6104af60048036038101906104aa91906128ec565b610cea565b6040516104bc91906125ef565b60405180910390f35b6104df60048036038101906104da9190612954565b610d6c565b6040516104ec9190612a04565b60405180910390f35b60606003805461050490612a4a565b80601f016020809104026020016040519081016040528092919081815260200182805461053090612a4a565b801561057b5780601f106105525761010080835404028352916020019161057b565b820191905f5260205f20905b81548152906001019060200180831161055e57829003601f168201915b5050505050905090565b5f5f61058f610e75565b905061059c818585610e7c565b600191505092915050565b5f600254905090565b5f5f6105ba610e75565b90506105c785828561103f565b6105d28585856110ca565b60019150509392505050565b5f6012905090565b5f6105ef611336565b905090565b5f5f6105fe610e75565b905061061f8185856106108589610cea565b61061a9190612aa7565b610e7c565b600191505092915050565b5f43821061066d576040517f08c379a000000000000000000000000000000000000000000000000000000000815260040161066490612b24565b60405180910390fd5b6106b360085f8573ffffffffffffffffffffffffffffffffffffffff1673ffffffffffffffffffffffffffffffffffffffff1681526020019081526020015f208361144f565b905092915050565b6106c58282611598565b5050565b5f60075f8373ffffffffffffffffffffffffffffffffffffffff1673ffffffffffffffffffffffffffffffffffffffff1681526020019081526020015f205f9054906101000a900473ffffffffffffffffffffffffffffffffffffffff169050919050565b61073f610739610e75565b826115a6565b50565b5f61078c60085f8473ffffffffffffffffffffffffffffffffffffffff1673ffffffffffffffffffffffffffffffffffffffff1681526020019081526020015f20805490506116bb565b9050919050565b5f5f5f8373ffffffffffffffffffffffffffffffffffffffff1673ffffffffffffffffffffffffffffffffffffffff1681526020019081526020015f20549050919050565b5f61081e60055f8473ffffffffffffffffffffffffffffffffffffffff1673ffffffffffffffffffffffffffffffffffffffff1681526020019081526020015f2061170d565b9050919050565b5f438210610868576040517f08c379a000000000000000000000000000000000000000000000000000000000815260040161085f90612b24565b60405180910390fd5b61087360098361144f565b9050919050565b60606004805461088990612a4a565b80601f01602080910402602001604051908101604052809291908181526020018280546108b590612a4a565b80156109005780601f106108d757610100808354040283529160200191610900565b820191905f5260205f20905b8154815290600101906020018083116108e357829003601f168201915b5050505050905090565b5f5f60085f8473ffffffffffffffffffffffffffffffffffffffff1673ffffffffffffffffffffffffffffffffffffffff1681526020019081526020015f208054905090505f81146109e95760085f8473ffffffffffffffffffffffffffffffffffffffff1673ffffffffffffffffffffffffffffffffffffffff1681526020019081526020015f206001826109a09190612b42565b815481106109b1576109b0612b75565b5b905f5260205f20015f0160049054906101000a90047bffffffffffffffffffffffffffffffffffffffffffffffffffffffff166109eb565b5f5b7bffffffffffffffffffffffffffffffffffffffffffffffffffffffff16915050919050565b5f5f610a1b610e75565b90505f610a288286610cea565b905083811015610a6d576040517f08c379a0000000000000000000000000000000000000000000000000000000008152600401610a6490612c12565b60405180910390fd5b610a7a8286868403610e7c565b60019250505092915050565b5f5f610a90610e75565b9050610a9d8185856110ca565b600191505092915050565b83421115610aeb576040517f08c379a0000000000000000000000000000000000000000000000000000000008152600401610ae290612c7a565b60405180910390fd5b5f610b4c610b447fe48329057bfd03d55e49b547132e39cffd9c1820ad7b9d4c5307691425d15adf898989604051602001610b299493929190612c98565b60405160208183030381529060405280519060200120611719565b858585611732565b9050610b578161175b565b8614610b98576040517f08c379a0000000000000000000000000000000000000000000000000000000008152600401610b8f90612d25565b60405180910390fd5b610ba281886115a6565b50505050505050565b83421115610bee576040517f08c379a0000000000000000000000000000000000000000000000000000000008152600401610be590612d8d565b60405180910390fd5b5f7f6e71edae12b1b97f4d1f60370fef10105fa2faae0126114a169c64845d6126c9888888610c1c8c61175b565b89604051602001610c3296959493929190612dab565b6040516020818303038152906040528051906020012090505f610c5482611719565b90505f610c6382878787611732565b90508973ffffffffffffffffffffffffffffffffffffffff168173ffffffffffffffffffffffffffffffffffffffff1614610cd3576040517f08c379a0000000000000000000000000000000000000000000000000000000008152600401610cca90612e54565b60405180910390fd5b610cde8a8a8a610e7c565b50505050505050505050565b5f60015f8473ffffffffffffffffffffffffffffffffffffffff1673ffffffffffffffffffffffffffffffffffffffff1681526020019081526020015f205f8373ffffffffffffffffffffffffffffffffffffffff1673ffffffffffffffffffffffffffffffffffffffff1681526020019081526020015f2054905092915050565b610d74612412565b60085f8473ffffffffffffffffffffffffffffffffffffffff1673ffffffffffffffffffffffffffffffffffffffff1681526020019081526020015f208263ffffffff1681548110610dc957610dc8612b75565b5b905f5260205f20016040518060400160405290815f82015f9054906101000a900463ffffffff1663ffffffff1663ffffffff1681526020015f820160049054906101000a90047bffffffffffffffffffffffffffffffffffffffffffffffffffffffff167bffffffffffffffffffffffffffffffffffffffffffffffffffffffff167bffffffffffffffffffffffffffffffffffffffffffffffffffffffff1681525050905092915050565b5f33905090565b5f73ffffffffffffffffffffffffffffffffffffffff168373ffffffffffffffffffffffffffffffffffffffff1603610eea576040517f08c379a0000000000000000000000000000000000000000000000000000000008152600401610ee190612ee2565b60405180910390fd5b5f73ffffffffffffffffffffffffffffffffffffffff168273ffffffffffffffffffffffffffffffffffffffff1603610f58576040517f08c379a0000000000000000000000000000000000000000000000000000000008152600401610f4f90612f70565b60405180910390fd5b8060015f8573ffffffffffffffffffffffffffffffffffffffff1673ffffffffffffffffffffffffffffffffffffffff1681526020019081526020015f205f8473ffffffffffffffffffffffffffffffffffffffff1673ffffffffffffffffffffffffffffffffffffffff1681526020019081526020015f20819055508173ffffffffffffffffffffffffffffffffffffffff168373ffffffffffffffffffffffffffffffffffffffff167f8c5be1e5ebec7d5bd14f71427d1e84f3dd0314c0f7b2291e5b200ac8c7c3b9258360405161103291906125ef565b60405180910390a3505050565b5f61104a8484610cea565b90507fffffffffffffffffffffffffffffffffffffffffffffffffffffffffffffffff81146110c457818110156110b6576040517f08c379a00000000000000000000000000000000000000000000000000000000081526004016110ad90612fd8565b60405180910390fd5b6110c38484848403610e7c565b5b50505050565b5f73ffffffffffffffffffffffffffffffffffffffff168373ffffffffffffffffffffffffffffffffffffffff1603611138576040517f08c379a000000000000000000000000000000000000000000000000000000000815260040161112f90613066565b60405180910390fd5b5f73ffffffffffffffffffffffffffffffffffffffff168273ffffffffffffffffffffffffffffffffffffffff16036111a6576040517f08c379a000000000000000000000000000000000000000000000000000000000815260040161119d906130f4565b60405180910390fd5b6111b18383836117b6565b5f5f5f8573ffffffffffffffffffffffffffffffffffffffff1673ffffffffffffffffffffffffffffffffffffffff1681526020019081526020015f2054905081811015611234576040517f08c379a000000000000000000000000000000000000000000000000000000000815260040161122b90613182565b60405180910390fd5b8181035f5f8673ffffffffffffffffffffffffffffffffffffffff1673ffffffffffffffffffffffffffffffffffffffff1681526020019081526020015f2081905550815f5f8573ffffffffffffffffffffffffffffffffffffffff1673ffffffffffffffffffffffffffffffffffffffff1681526020019081526020015f205f82825401925050819055508273ffffffffffffffffffffffffffffffffffffffff168473ffffffffffffffffffffffffffffffffffffffff167fddf252ad1be2c89b69c2b068fc378daa952ba7f163c4a11628f55a4df523b3ef8460405161131d91906125ef565b60405180910390a36113308484846117bb565b50505050565b5f7f000000000000000000000000000000000000000000000000000000000000000073ffffffffffffffffffffffffffffffffffffffff163073ffffffffffffffffffffffffffffffffffffffff161480156113b157507f000000000000000000000000000000000000000000000000000000000000000046145b156113de577f0000000000000000000000000000000000000000000000000000000000000000905061144c565b6114497f00000000000000000000000000000000000000000000000000000000000000007f00000000000000000000000000000000000000000000000000000000000000007f00000000000000000000000000000000000000000000000000000000000000006117cb565b90505b90565b5f5f838054905090505f5f90505f82905060058311156114c3575f61147384611804565b8461147e9190612b42565b90508561148b88836118fa565b5f015f9054906101000a900463ffffffff1663ffffffff1611156114b1578091506114c1565b6001816114be9190612aa7565b92505b505b5b80821015611520575f6114d7838361190c565b9050856114e488836118fa565b5f015f9054906101000a900463ffffffff1663ffffffff16111561150a5780915061151a565b6001816115179190612aa7565b92505b506114c4565b5f811461156d5761153d866001836115389190612b42565b6118fa565b5f0160049054906101000a90047bffffffffffffffffffffffffffffffffffffffffffffffffffffffff1661156f565b5f5b7bffffffffffffffffffffffffffffffffffffffffffffffffffffffff16935050505092915050565b6115a28282611931565b5050565b5f6115b0836106c9565b90505f6115bc84610793565b90508260075f8673ffffffffffffffffffffffffffffffffffffffff1673ffffffffffffffffffffffffffffffffffffffff1681526020019081526020015f205f6101000a81548173ffffffffffffffffffffffffffffffffffffffff021916908373ffffffffffffffffffffffffffffffffffffffff1602179055508273ffffffffffffffffffffffffffffffffffffffff168273ffffffffffffffffffffffffffffffffffffffff168573ffffffffffffffffffffffffffffffffffffffff167f3134e8a2e6d97e929a7e54011ea5485d7d196dd5f0ba4d4ef95803e8e3fc257f60405160405180910390a46116b58284836119be565b50505050565b5f63ffffffff8016821115611705576040517f08c379a00000000000000000000000000000000000000000000000000000000081526004016116fc90613210565b60405180910390fd5b819050919050565b5f815f01549050919050565b5f61172b611725611336565b83611bae565b9050919050565b5f5f5f61174187878787611be0565b9150915061174e81611cb8565b8192505050949350505050565b5f5f60055f8473ffffffffffffffffffffffffffffffffffffffff1673ffffffffffffffffffffffffffffffffffffffff1681526020019081526020015f2090506117a58161170d565b91506117b081611e1d565b50919050565b505050565b6117c6838383611e31565b505050565b5f83838346306040516020016117e595949392919061322e565b6040516020818303038152906040528051906020012090509392505050565b5f5f8203611814575f90506118f5565b5f600161182084611e5c565b901c6001901b9050600181848161183a5761183961327f565b5b048201901c905060018184816118535761185261327f565b5b048201901c9050600181848161186c5761186b61327f565b5b048201901c905060018184816118855761188461327f565b5b048201901c9050600181848161189e5761189d61327f565b5b048201901c905060018184816118b7576118b661327f565b5b048201901c905060018184816118d0576118cf61327f565b5b048201901c90506118f1818285816118eb576118ea61327f565b5b04611f33565b9150505b919050565b5f825f528160205f2001905092915050565b5f600282841861191c91906132ac565b8284166119299190612aa7565b905092915050565b61193b8282611f4b565b611943612099565b7bffffffffffffffffffffffffffffffffffffffffffffffffffffffff166119696105a7565b11156119aa576040517f08c379a00000000000000000000000000000000000000000000000000000000081526004016119a19061334c565b60405180910390fd5b6119b860096120bc836120d1565b50505050565b8173ffffffffffffffffffffffffffffffffffffffff168373ffffffffffffffffffffffffffffffffffffffff16141580156119f957505f81115b15611ba9575f73ffffffffffffffffffffffffffffffffffffffff168373ffffffffffffffffffffffffffffffffffffffff1614611ad3575f5f611a7c60085f8773ffffffffffffffffffffffffffffffffffffffff1673ffffffffffffffffffffffffffffffffffffffff1681526020019081526020015f2061238e856120d1565b915091508473ffffffffffffffffffffffffffffffffffffffff167fdec2bacdd2f05b59de34da9b523dff8be42e5e38e818c82fdb0bae774387a7248383604051611ac892919061336a565b60405180910390a250505b5f73ffffffffffffffffffffffffffffffffffffffff168273ffffffffffffffffffffffffffffffffffffffff1614611ba8575f5f611b5160085f8673ffffffffffffffffffffffffffffffffffffffff1673ffffffffffffffffffffffffffffffffffffffff1681526020019081526020015f206120bc856120d1565b915091508373ffffffffffffffffffffffffffffffffffffffff167fdec2bacdd2f05b59de34da9b523dff8be42e5e38e818c82fdb0bae774387a7248383604051611b9d92919061336a565b60405180910390a250505b5b505050565b5f8282604051602001611bc2929190613405565b60405160208183030381529060405280519060200120905092915050565b5f5f7f7fffffffffffffffffffffffffffffff5d576e7357a4501ddfe92f46681b20a0835f1c1115611c18575f600391509150611caf565b5f6001878787876040515f8152602001604052604051611c3b949392919061343b565b6020604051602081039080840390855afa158015611c5b573d5f5f3e3d5ffd5b5050506020604051035190505f73ffffffffffffffffffffffffffffffffffffffff168173ffffffffffffffffffffffffffffffffffffffff1603611ca7575f60019250925050611caf565b805f92509250505b94509492505050565b5f6004811115611ccb57611cca61347e565b5b816004811115611cde57611cdd61347e565b5b0315611e1a5760016004811115611cf857611cf761347e565b5b816004811115611d0b57611d0a61347e565b5b03611d4b576040517f08c379a0000000000000000000000000000000000000000000000000000000008152600401611d42906134f5565b60405180910390fd5b60026004811115611d5f57611d5e61347e565b5b816004811115611d7257611d7161347e565b5b03611db2576040517f08c379a0000000000000000000000000000000000000000000000000000000008152600401611da99061355d565b60405180910390fd5b60036004811115611dc657611dc561347e565b5b816004811115611dd957611dd861347e565b5b03611e19576040517f08c379a0000000000000000000000000000000000000000000000000000000008152600401611e10906135eb565b60405180910390fd5b5b50565b6001815f015f828254019250508190555050565b611e3c8383836123a3565b611e57611e48846106c9565b611e51846106c9565b836119be565b505050565b5f5f5f90505f608084901c1115611e7b57608083901c92506080810190505b5f604084901c1115611e9557604083901c92506040810190505b5f602084901c1115611eaf57602083901c92506020810190505b5f601084901c1115611ec957601083901c92506010810190505b5f600884901c1115611ee357600883901c92506008810190505b5f600484901c1115611efd57600483901c92506004810190505b5f600284901c1115611f1757600283901c92506002810190505b5f600184901c1115611f2a576001810190505b80915050919050565b5f818310611f415781611f43565b825b905092915050565b5f73ffffffffffffffffffffffffffffffffffffffff168273ffffffffffffffffffffffffffffffffffffffff1603611fb9576040517f08c379a0000000000000000000000000000000000000000000000000000000008152600401611fb090613653565b60405180910390fd5b611fc45f83836117b6565b8060025f828254611fd59190612aa7565b92505081905550805f5f8473ffffffffffffffffffffffffffffffffffffffff1673ffffffffffffffffffffffffffffffffffffffff1681526020019081526020015f205f82825401925050819055508173ffffffffffffffffffffffffffffffffffffffff165f73ffffffffffffffffffffffffffffffffffffffff167fddf252ad1be2c89b69c2b068fc378daa952ba7f163c4a11628f55a4df523b3ef8360405161208291906125ef565b60405180910390a36120955f83836117bb565b5050565b5f7bffffffffffffffffffffffffffffffffffffffffffffffffffffffff905090565b5f81836120c99190612aa7565b905092915050565b5f5f5f858054905090505f5f821461219a576120f9876001846120f49190612b42565b6118fa565b6040518060400160405290815f82015f9054906101000a900463ffffffff1663ffffffff1663ffffffff1681526020015f820160049054906101000a90047bffffffffffffffffffffffffffffffffffffffffffffffffffffffff167bffffffffffffffffffffffffffffffffffffffffffffffffffffffff167bffffffffffffffffffffffffffffffffffffffffffffffffffffffff16815250506121d4565b60405180604001604052805f63ffffffff1681526020015f7bffffffffffffffffffffffffffffffffffffffffffffffffffffffff168152505b905080602001517bffffffffffffffffffffffffffffffffffffffffffffffffffffffff16935061220984868863ffffffff16565b92505f82118015612222575043815f015163ffffffff16145b1561229b57612230836123a8565b612246886001856122419190612b42565b6118fa565b5f0160046101000a8154817bffffffffffffffffffffffffffffffffffffffffffffffffffffffff02191690837bffffffffffffffffffffffffffffffffffffffffffffffffffffffff160217905550612384565b8660405180604001604052806122b0436116bb565b63ffffffff1681526020016122c4866123a8565b7bffffffffffffffffffffffffffffffffffffffffffffffffffffffff16815250908060018154018082558091505060019003905f5260205f20015f909190919091505f820151815f015f6101000a81548163ffffffff021916908363ffffffff1602179055506020820151815f0160046101000a8154817bffffffffffffffffffffffffffffffffffffffffffffffffffffffff02191690837bffffffffffffffffffffffffffffffffffffffffffffffffffffffff16021790555050505b5050935093915050565b5f818361239b9190612b42565b905092915050565b505050565b5f7bffffffffffffffffffffffffffffffffffffffffffffffffffffffff801682111561240a576040517f08c379a0000000000000000000000000000000000000000000000000000000008152600401612401906136e1565b60405180910390fd5b819050919050565b60405180604001604052805f63ffffffff1681526020015f7bffffffffffffffffffffffffffffffffffffffffffffffffffffffff1681525090565b5f81519050919050565b5f82825260208201905092915050565b8281835e5f83830152505050565b5f601f19601f8301169050919050565b5f6124908261244e565b61249a8185612458565b93506124aa818560208601612468565b6124b381612476565b840191505092915050565b5f6020820190508181035f8301526124d68184612486565b905092915050565b5f5ffd5b5f73ffffffffffffffffffffffffffffffffffffffff82169050919050565b5f61250b826124e2565b9050919050565b61251b81612501565b8114612525575f5ffd5b50565b5f8135905061253681612512565b92915050565b5f819050919050565b61254e8161253c565b8114612558575f5ffd5b50565b5f8135905061256981612545565b92915050565b5f5f60408385031215612585576125846124de565b5b5f61259285828601612528565b92505060206125a38582860161255b565b9150509250929050565b5f8115159050919050565b6125c1816125ad565b82525050565b5f6020820190506125da5f8301846125b8565b92915050565b6125e98161253c565b82525050565b5f6020820190506126025f8301846125e0565b92915050565b5f5f5f6060848603121561261f5761261e6124de565b5b5f61262c86828701612528565b935050602061263d86828701612528565b925050604061264e8682870161255b565b9150509250925092565b5f60ff82169050919050565b61266d81612658565b82525050565b5f6020820190506126865f830184612664565b92915050565b5f819050919050565b61269e8161268c565b82525050565b5f6020820190506126b75f830184612695565b92915050565b5f602082840312156126d2576126d16124de565b5b5f6126df84828501612528565b91505092915050565b6126f181612501565b82525050565b5f60208201905061270a5f8301846126e8565b92915050565b5f63ffffffff82169050919050565b61272881612710565b82525050565b5f6020820190506127415f83018461271f565b92915050565b5f6020828403121561275c5761275b6124de565b5b5f6127698482850161255b565b91505092915050565b61277b81612658565b8114612785575f5ffd5b50565b5f8135905061279681612772565b92915050565b6127a58161268c565b81146127af575f5ffd5b50565b5f813590506127c08161279c565b92915050565b5f5f5f5f5f5f60c087890312156127e0576127df6124de565b5b5f6127ed89828a01612528565b96505060206127fe89828a0161255b565b955050604061280f89828a0161255b565b945050606061282089828a01612788565b935050608061283189828a016127b2565b92505060a061284289828a016127b2565b9150509295509295509295565b5f5f5f5f5f5f5f60e0888a03121561286a576128696124de565b5b5f6128778a828b01612528565b97505060206128888a828b01612528565b96505060406128998a828b0161255b565b95505060606128aa8a828b0161255b565b94505060806128bb8a828b01612788565b93505060a06128cc8a828b016127b2565b92505060c06128dd8a828b016127b2565b91505092959891949750929550565b5f5f60408385031215612902576129016124de565b5b5f61290f85828601612528565b925050602061292085828601612528565b9150509250929050565b61293381612710565b811461293d575f5ffd5b50565b5f8135905061294e8161292a565b92915050565b5f5f6040838503121561296a576129696124de565b5b5f61297785828601612528565b925050602061298885828601612940565b9150509250929050565b61299b81612710565b82525050565b5f7bffffffffffffffffffffffffffffffffffffffffffffffffffffffff82169050919050565b6129d1816129a1565b82525050565b604082015f8201516129eb5f850182612992565b5060208201516129fe60208501826129c8565b50505050565b5f604082019050612a175f8301846129d7565b92915050565b7f4e487b71000000000000000000000000000000000000000000000000000000005f52602260045260245ffd5b5f6002820490506001821680612a6157607f821691505b602082108103612a7457612a73612a1d565b5b50919050565b7f4e487b71000000000000000000000000000000000000000000000000000000005f52601160045260245ffd5b5f612ab18261253c565b9150612abc8361253c565b9250828201905080821115612ad457612ad3612a7a565b5b92915050565b7f4552433230566f7465733a20626c6f636b206e6f7420796574206d696e6564005f82015250565b5f612b0e601f83612458565b9150612b1982612ada565b602082019050919050565b5f6020820190508181035f830152612b3b81612b02565b9050919050565b5f612b4c8261253c565b9150612b578361253c565b9250828203905081811115612b6f57612b6e612a7a565b5b92915050565b7f4e487b71000000000000000000000000000000000000000000000000000000005f52603260045260245ffd5b7f45524332303a2064656372656173656420616c6c6f77616e63652062656c6f775f8201527f207a65726f000000000000000000000000000000000000000000000000000000602082015250565b5f612bfc602583612458565b9150612c0782612ba2565b604082019050919050565b5f6020820190508181035f830152612c2981612bf0565b9050919050565b7f4552433230566f7465733a207369676e617475726520657870697265640000005f82015250565b5f612c64601d83612458565b9150612c6f82612c30565b602082019050919050565b5f6020820190508181035f830152612c9181612c58565b9050919050565b5f608082019050612cab5f830187612695565b612cb860208301866126e8565b612cc560408301856125e0565b612cd260608301846125e0565b95945050505050565b7f4552433230566f7465733a20696e76616c6964206e6f6e6365000000000000005f82015250565b5f612d0f601983612458565b9150612d1a82612cdb565b602082019050919050565b5f6020820190508181035f830152612d3c81612d03565b9050919050565b7f45524332305065726d69743a206578706972656420646561646c696e650000005f82015250565b5f612d77601d83612458565b9150612d8282612d43565b602082019050919050565b5f6020820190508181035f830152612da481612d6b565b9050919050565b5f60c082019050612dbe5f830189612695565b612dcb60208301886126e8565b612dd860408301876126e8565b612de560608301866125e0565b612df260808301856125e0565b612dff60a08301846125e0565b979650505050505050565b7f45524332305065726d69743a20696e76616c6964207369676e617475726500005f82015250565b5f612e3e601e83612458565b9150612e4982612e0a565b602082019050919050565b5f6020820190508181035f830152612e6b81612e32565b9050919050565b7f45524332303a20617070726f76652066726f6d20746865207a65726f206164645f8201527f7265737300000000000000000000000000000000000000000000000000000000602082015250565b5f612ecc602483612458565b9150612ed782612e72565b604082019050919050565b5f6020820190508181035f830152612ef981612ec0565b9050919050565b7f45524332303a20617070726f766520746f20746865207a65726f2061646472655f8201527f7373000000000000000000000000000000000000000000000000000000000000602082015250565b5f612f5a602283612458565b9150612f6582612f00565b604082019050919050565b5f6020820190508181035f830152612f8781612f4e565b9050919050565b7f45524332303a20696e73756666696369656e7420616c6c6f77616e63650000005f82015250565b5f612fc2601d83612458565b9150612fcd82612f8e565b602082019050919050565b5f6020820190508181035f830152612fef81612fb6565b9050919050565b7f45524332303a207472616e736665722066726f6d20746865207a65726f2061645f8201527f6472657373000000000000000000000000000000000000000000000000000000602082015250565b5f613050602583612458565b915061305b82612ff6565b604082019050919050565b5f6020820190508181035f83015261307d81613044565b9050919050565b7f45524332303a207472616e7366657220746f20746865207a65726f20616464725f8201527f6573730000000000000000000000000000000000000000000000000000000000602082015250565b5f6130de602383612458565b91506130e982613084565b604082019050919050565b5f6020820190508181035f83015261310b816130d2565b9050919050565b7f45524332303a207472616e7366657220616d6f756e74206578636565647320625f8201527f616c616e63650000000000000000000000000000000000000000000000000000602082015250565b5f61316c602683612458565b915061317782613112565b604082019050919050565b5f6020820190508181035f83015261319981613160565b9050919050565b7f53616665436173743a2076616c756520646f65736e27742066697420696e20335f8201527f3220626974730000000000000000000000000000000000000000000000000000602082015250565b5f6131fa602683612458565b9150613205826131a0565b604082019050919050565b5f6020820190508181035f830152613227816131ee565b9050919050565b5f60a0820190506132415f830188612695565b61324e6020830187612695565b61325b6040830186612695565b61326860608301856125e0565b61327560808301846126e8565b9695505050505050565b7f4e487b71000000000000000000000000000000000000000000000000000000005f52601260045260245ffd5b5f6132b68261253c565b91506132c18361253c565b9250826132d1576132d061327f565b5b828204905092915050565b7f4552433230566f7465733a20746f74616c20737570706c79207269736b73206f5f8201527f766572666c6f77696e6720766f74657300000000000000000000000000000000602082015250565b5f613336603083612458565b9150613341826132dc565b604082019050919050565b5f6020820190508181035f8301526133638161332a565b9050919050565b5f60408201905061337d5f8301856125e0565b61338a60208301846125e0565b9392505050565b5f81905092915050565b7f19010000000000000000000000000000000000000000000000000000000000005f82015250565b5f6133cf600283613391565b91506133da8261339b565b600282019050919050565b5f819050919050565b6133ff6133fa8261268c565b6133e5565b82525050565b5f61340f826133c3565b915061341b82856133ee565b60208201915061342b82846133ee565b6020820191508190509392505050565b5f60808201905061344e5f830187612695565b61345b6020830186612664565b6134686040830185612695565b6134756060830184612695565b95945050505050565b7f4e487b71000000000000000000000000000000000000000000000000000000005f52602160045260245ffd5b7f45434453413a20696e76616c6964207369676e617475726500000000000000005f82015250565b5f6134df601883612458565b91506134ea826134ab565b602082019050919050565b5f6020820190508181035f83015261350c816134d3565b9050919050565b7f45434453413a20696e76616c6964207369676e6174757265206c656e677468005f82015250565b5f613547601f83612458565b915061355282613513565b602082019050919050565b5f6020820190508181035f8301526135748161353b565b9050919050565b7f45434453413a20696e76616c6964207369676e6174757265202773272076616c5f8201527f7565000000000000000000000000000000000000000000000000000000000000602082015250565b5f6135d5602283612458565b91506135e08261357b565b604082019050919050565b5f6020820190508181035f830152613602816135c9565b9050919050565b7f45524332303a206d696e7420746f20746865207a65726f2061646472657373005f82015250565b5f61363d601f83612458565b915061364882613609565b602082019050919050565b5f6020820190508181035f83015261366a81613631565b9050919050565b7f53616665436173743a2076616c756520646f65736e27742066697420696e20325f8201527f3234206269747300000000000000000000000000000000000000000000000000602082015250565b5f6136cb602783612458565b91506136d682613671565b604082019050919050565b5f6020820190508181035f8301526136f8816136bf565b905091905056fea2646970667358221220a336f93563028bdcb7bdda4b1c869abd1be60b7c0ef5f6f020ce95630d4b0d9f64736f6c634300081c0033","linkReferences":{}},"methodIdentifiers":{"DOMAIN_SEPARATOR()":"3644e515","allowance(address,address)":"dd62ed3e","approve(address,uint256)":"095ea7b3","balanceOf(address)":"70a08231","checkpoints(address,uint32)":"f1127ed8","decimals()":"313ce567","decreaseAllowance(address,uint256)":"a457c2d7","delegate(address)":"5c19a95c","delegateBySig(address,uint256,uint256,uint8,bytes32,bytes32)":"c3cda520","delegates(address)":"587cde1e","getPastTotalSupply(uint256)":"8e539e8c","getPastVotes(address,uint256)":"3a46b1a8","getVotes(address)":"9ab24eb0","increaseAllowance(address,uint256)":"39509351","mint(address,uint256)":"40c10f19","name()":"06fdde03","nonces(address)":"7ecebe00","numCheckpoints(address)":"6fcfff45","permit(address,address,uint256,uint256,uint8,bytes32,bytes32)":"d505accf","symbol()":"95d89b41","totalSupply()":"18160ddd","transfer(address,uint256)":"a9059cbb","transferFrom(address,address,uint256)":"23b872dd"},"id":54}